{
  "contractName": "Put",
  "abi": [
    {
      "inputs": [
        {
          "internalType": "contract DaiToken",
          "name": "_token",
          "type": "address"
        }
      ],
      "stateMutability": "nonpayable",
      "type": "constructor"
    },
    {
      "anonymous": false,
      "inputs": [
        {
          "indexed": true,
          "internalType": "address",
          "name": "account",
          "type": "address"
        },
        {
          "indexed": false,
          "internalType": "uint256",
          "name": "settlementFee",
          "type": "uint256"
        },
        {
          "indexed": false,
          "internalType": "uint256",
          "name": "totalFee",
          "type": "uint256"
        }
      ],
      "name": "Create",
      "type": "event"
    },
    {
      "anonymous": false,
      "inputs": [
        {
          "indexed": true,
          "internalType": "address",
          "name": "previousOwner",
          "type": "address"
        },
        {
          "indexed": true,
          "internalType": "address",
          "name": "newOwner",
          "type": "address"
        }
      ],
      "name": "OwnershipTransferred",
      "type": "event"
    },
    {
      "inputs": [],
      "name": "name",
      "outputs": [
        {
          "internalType": "string",
          "name": "",
          "type": "string"
        }
      ],
      "stateMutability": "view",
      "type": "function",
      "constant": true
    },
    {
      "inputs": [],
      "name": "owner",
      "outputs": [
        {
          "internalType": "address",
          "name": "",
          "type": "address"
        }
      ],
      "stateMutability": "view",
      "type": "function",
      "constant": true
    },
    {
      "inputs": [],
      "name": "renounceOwnership",
      "outputs": [],
      "stateMutability": "nonpayable",
      "type": "function"
    },
    {
      "inputs": [
        {
          "internalType": "address",
          "name": "newOwner",
          "type": "address"
        }
      ],
      "name": "transferOwnership",
      "outputs": [],
      "stateMutability": "nonpayable",
      "type": "function"
    },
    {
      "inputs": [],
      "name": "approve",
      "outputs": [],
      "stateMutability": "nonpayable",
      "type": "function"
    }
  ],
  "bytecode": "0x60806040526040518060400160405280601981526020017f507574204865646765204f7074696f6e20436f6e747261637400000000000000815250600190805190602001906200005192919062000273565b503480156200005f57600080fd5b5060405162003a3238038062003a32833981810160405281019062000085919062000348565b600080620000986200026b60201b60201c565b9050806000806101000a81548173ffffffffffffffffffffffffffffffffffffffff021916908373ffffffffffffffffffffffffffffffffffffffff1602179055508073ffffffffffffffffffffffffffffffffffffffff16600073ffffffffffffffffffffffffffffffffffffffff167f8be0079c531659141344cd1fd0a4f28419497f9722a3daafe3b4186f6b6457e060405160405180910390a35080600060146101000a81548160ff0219169083600181111562000182577f4e487b7100000000000000000000000000000000000000000000000000000000600052602160045260246000fd5b02179055505080600260006101000a81548173ffffffffffffffffffffffffffffffffffffffff021916908373ffffffffffffffffffffffffffffffffffffffff160217905550600260009054906101000a900473ffffffffffffffffffffffffffffffffffffffff16604051620001fa9062000304565b62000206919062000385565b604051809103906000f08015801562000223573d6000803e3d6000fd5b50600360006101000a81548173ffffffffffffffffffffffffffffffffffffffff021916908373ffffffffffffffffffffffffffffffffffffffff1602179055505062000491565b600033905090565b828054620002819062000412565b90600052602060002090601f016020900481019282620002a55760008555620002f1565b82601f10620002c057805160ff1916838001178555620002f1565b82800160010185558215620002f1579182015b82811115620002f0578251825591602001919060010190620002d3565b5b50905062000300919062000312565b5090565b612bfa8062000e3883390190565b5b808211156200032d57600081600090555060010162000313565b5090565b600081519050620003428162000477565b92915050565b6000602082840312156200035b57600080fd5b60006200036b8482850162000331565b91505092915050565b6200037f81620003ea565b82525050565b60006020820190506200039c600083018462000374565b92915050565b6000620003af82620003ca565b9050919050565b6000620003c382620003a2565b9050919050565b600073ffffffffffffffffffffffffffffffffffffffff82169050919050565b6000620003f782620003fe565b9050919050565b60006200040b82620003ca565b9050919050565b600060028204905060018216806200042b57607f821691505b6020821081141562000442576200044162000448565b5b50919050565b7f4e487b7100000000000000000000000000000000000000000000000000000000600052602260045260246000fd5b6200048281620003b6565b81146200048e57600080fd5b50565b61099780620004a16000396000f3fe608060405234801561001057600080fd5b50600436106100575760003560e01c806306fdde031461005c57806312424e3f1461007a578063715018a6146100845780638da5cb5b1461008e578063f2fde38b146100ac575b600080fd5b6100646100c8565b6040516100719190610707565b60405180910390f35b610082610156565b005b61008c610273565b005b6100966103ad565b6040516100a391906106c3565b60405180910390f35b6100c660048036038101906100c191906105b1565b6103d6565b005b600180546100d590610820565b80601f016020809104026020016040519081016040528092919081815260200182805461010190610820565b801561014e5780601f106101235761010080835404028352916020019161014e565b820191906000526020600020905b81548152906001019060200180831161013157829003601f168201915b505050505081565b600260009054906101000a900473ffffffffffffffffffffffffffffffffffffffff1673ffffffffffffffffffffffffffffffffffffffff1663095ea7b3600360009054906101000a900473ffffffffffffffffffffffffffffffffffffffff166a084595161401484a0000006040518363ffffffff1660e01b81526004016101e09291906106de565b602060405180830381600087803b1580156101fa57600080fd5b505af115801561020e573d6000803e3d6000fd5b505050506040513d601f19601f8201168201806040525081019061023291906105da565b610271576040517f08c379a000000000000000000000000000000000000000000000000000000000815260040161026890610749565b60405180910390fd5b565b61027b61057f565b73ffffffffffffffffffffffffffffffffffffffff166102996103ad565b73ffffffffffffffffffffffffffffffffffffffff16146102ef576040517f08c379a00000000000000000000000000000000000000000000000000000000081526004016102e690610769565b60405180910390fd5b600073ffffffffffffffffffffffffffffffffffffffff1660008054906101000a900473ffffffffffffffffffffffffffffffffffffffff1673ffffffffffffffffffffffffffffffffffffffff167f8be0079c531659141344cd1fd0a4f28419497f9722a3daafe3b4186f6b6457e060405160405180910390a360008060006101000a81548173ffffffffffffffffffffffffffffffffffffffff021916908373ffffffffffffffffffffffffffffffffffffffff160217905550565b60008060009054906101000a900473ffffffffffffffffffffffffffffffffffffffff16905090565b6103de61057f565b73ffffffffffffffffffffffffffffffffffffffff166103fc6103ad565b73ffffffffffffffffffffffffffffffffffffffff1614610452576040517f08c379a000000000000000000000000000000000000000000000000000000000815260040161044990610769565b60405180910390fd5b600073ffffffffffffffffffffffffffffffffffffffff168173ffffffffffffffffffffffffffffffffffffffff1614156104c2576040517f08c379a00000000000000000000000000000000000000000000000000000000081526004016104b990610729565b60405180910390fd5b8073ffffffffffffffffffffffffffffffffffffffff1660008054906101000a900473ffffffffffffffffffffffffffffffffffffffff1673ffffffffffffffffffffffffffffffffffffffff167f8be0079c531659141344cd1fd0a4f28419497f9722a3daafe3b4186f6b6457e060405160405180910390a3806000806101000a81548173ffffffffffffffffffffffffffffffffffffffff021916908373ffffffffffffffffffffffffffffffffffffffff16021790555050565b600033905090565b60008135905061059681610933565b92915050565b6000815190506105ab8161094a565b92915050565b6000602082840312156105c357600080fd5b60006105d184828501610587565b91505092915050565b6000602082840312156105ec57600080fd5b60006105fa8482850161059c565b91505092915050565b61060c816107a5565b82525050565b600061061d82610789565b6106278185610794565b93506106378185602086016107ed565b61064081610881565b840191505092915050565b6000610658602683610794565b915061066382610892565b604082019050919050565b600061067b601483610794565b9150610686826108e1565b602082019050919050565b600061069e602083610794565b91506106a98261090a565b602082019050919050565b6106bd816107e3565b82525050565b60006020820190506106d86000830184610603565b92915050565b60006040820190506106f36000830185610603565b61070060208301846106b4565b9392505050565b600060208201905081810360008301526107218184610612565b905092915050565b600060208201905081810360008301526107428161064b565b9050919050565b600060208201905081810360008301526107628161066e565b9050919050565b6000602082019050818103600083015261078281610691565b9050919050565b600081519050919050565b600082825260208201905092915050565b60006107b0826107c3565b9050919050565b60008115159050919050565b600073ffffffffffffffffffffffffffffffffffffffff82169050919050565b6000819050919050565b60005b8381101561080b5780820151818401526020810190506107f0565b8381111561081a576000848401525b50505050565b6000600282049050600182168061083857607f821691505b6020821081141561084c5761084b610852565b5b50919050565b7f4e487b7100000000000000000000000000000000000000000000000000000000600052602260045260246000fd5b6000601f19601f8301169050919050565b7f4f776e61626c653a206e6577206f776e657220697320746865207a65726f206160008201527f6464726573730000000000000000000000000000000000000000000000000000602082015250565b7f746f6b656e20617070726f7665206661696c6564000000000000000000000000600082015250565b7f4f776e61626c653a2063616c6c6572206973206e6f7420746865206f776e6572600082015250565b61093c816107a5565b811461094757600080fd5b50565b610953816107b7565b811461095e57600080fd5b5056fea2646970667358221220f3c72a7a7197e82f662b2deca7ccbc800da638d02f7d878c7568e96a4d8c1a1b64736f6c6343000803003360806040523480156200001157600080fd5b5060405162002bfa38038062002bfa83398181016040528101906200003791906200029e565b6040518060400160405280601281526020017f486567696320444149204c5020546f6b656e00000000000000000000000000008152506040518060400160405280600881526020017f77726974654441490000000000000000000000000000000000000000000000008152506000620000b5620001cf60201b60201c565b9050806000806101000a81548173ffffffffffffffffffffffffffffffffffffffff021916908373ffffffffffffffffffffffffffffffffffffffff1602179055508073ffffffffffffffffffffffffffffffffffffffff16600073ffffffffffffffffffffffffffffffffffffffff167f8be0079c531659141344cd1fd0a4f28419497f9722a3daafe3b4186f6b6457e060405160405180910390a35081600490805190602001906200016b929190620001d7565b50806005908051906020019062000184929190620001d7565b50505080600660006101000a81548173ffffffffffffffffffffffffffffffffffffffff021916908373ffffffffffffffffffffffffffffffffffffffff1602179055505062000391565b600033905090565b828054620001e59062000312565b90600052602060002090601f01602090048101928262000209576000855562000255565b82601f106200022457805160ff191683800117855562000255565b8280016001018555821562000255579182015b828111156200025457825182559160200191906001019062000237565b5b50905062000264919062000268565b5090565b5b808211156200028357600081600090555060010162000269565b5090565b600081519050620002988162000377565b92915050565b600060208284031215620002b157600080fd5b6000620002c18482850162000287565b91505092915050565b6000620002d782620002f2565b9050919050565b6000620002eb82620002ca565b9050919050565b600073ffffffffffffffffffffffffffffffffffffffff82169050919050565b600060028204905060018216806200032b57607f821691505b6020821081141562000342576200034162000348565b5b50919050565b7f4e487b7100000000000000000000000000000000000000000000000000000000600052602260045260246000fd5b6200038281620002de565b81146200038e57600080fd5b50565b61285980620003a16000396000f3fe608060405234801561001057600080fd5b50600436106101215760003560e01c806370a08231116100ad578063a9059cbb11610071578063a9059cbb14610346578063ad7a672f14610376578063dd62ed3e14610394578063ed922a06146103c4578063f2fde38b146103e057610121565b806370a08231146102a0578063715018a6146102d05780638da5cb5b146102da57806395d89b41146102f8578063a457c2d71461031657610121565b806323b872dd116100f457806323b872dd146101c25780632e1a7d4d146101f25780632e2ebe0614610222578063313ce56714610252578063395093511461027057610121565b806306fdde0314610126578063095ea7b31461014457806318160ddd1461017457806321e5e2c414610192575b600080fd5b61012e6103fc565b60405161013b9190611e7c565b60405180910390f35b61015e60048036038101906101599190611a8a565b61048e565b60405161016b9190611e61565b60405180910390f35b61017c6104ac565b604051610189919061209e565b60405180910390f35b6101ac60048036038101906101a791906119d6565b6104b6565b6040516101b9919061209e565b60405180910390f35b6101dc60048036038101906101d79190611a3b565b610512565b6040516101e99190611e61565b60405180910390f35b61020c60048036038101906102079190611aef565b610613565b604051610219919061209e565b60405180910390f35b61023c60048036038101906102379190611aef565b610825565b604051610249919061209e565b60405180910390f35b61025a6109f7565b60405161026791906120e2565b60405180910390f35b61028a60048036038101906102859190611a8a565b610a00565b6040516102979190611e61565b60405180910390f35b6102ba60048036038101906102b591906119d6565b610aac565b6040516102c7919061209e565b60405180910390f35b6102d8610af5565b005b6102e2610c2f565b6040516102ef9190611de6565b60405180910390f35b610300610c58565b60405161030d9190611e7c565b60405180910390f35b610330600480360381019061032b9190611a8a565b610cea565b60405161033d9190611e61565b60405180910390f35b610360600480360381019061035b9190611a8a565b610dde565b60405161036d9190611e61565b60405180910390f35b61037e610dfc565b60405161038b919061209e565b60405180910390f35b6103ae60048036038101906103a991906119ff565b610eae565b6040516103bb919061209e565b60405180910390f35b6103de60048036038101906103d99190611aef565b610f35565b005b6103fa60048036038101906103f591906119d6565b611028565b005b60606004805461040b906122b6565b80601f0160208091040260200160405190810160405280929190818152602001828054610437906122b6565b80156104845780601f1061045957610100808354040283529160200191610484565b820191906000526020600020905b81548152906001019060200180831161046757829003601f168201915b5050505050905090565b60006104a261049b6111d1565b84846111d9565b6001905092915050565b6000600354905090565b6000806104c16104ac565b9050600081111561050757610500816104f26104dc86610aac565b6104e4610dfc565b6113a490919063ffffffff16565b6113ba90919063ffffffff16565b915061050c565b600091505b50919050565b600061051f8484846113d0565b6000600260008673ffffffffffffffffffffffffffffffffffffffff1673ffffffffffffffffffffffffffffffffffffffff168152602001908152602001600020600061056a6111d1565b73ffffffffffffffffffffffffffffffffffffffff1673ffffffffffffffffffffffffffffffffffffffff168152602001908152602001600020549050828110156105ea576040517f08c379a00000000000000000000000000000000000000000000000000000000081526004016105e190611f7e565b60405180910390fd5b610607856105f66111d1565b858461060291906121fa565b6111d9565b60019150509392505050565b6000610648610620610dfc565b61063a61062b6104ac565b856113a490919063ffffffff16565b6113ba90919063ffffffff16565b905061065333610aac565b811115610695576040517f08c379a000000000000000000000000000000000000000000000000000000000815260040161068c9061203e565b60405180910390fd5b600081116106d8576040517f08c379a00000000000000000000000000000000000000000000000000000000081526004016106cf9061201e565b60405180910390fd5b6106e23382611652565b3373ffffffffffffffffffffffffffffffffffffffff167ff279e6a1f5e320cca91135676d9cb6e44ca8a08c0b88342bcdb1144f6511b568838360405161072a9291906120b9565b60405180910390a2600660009054906101000a900473ffffffffffffffffffffffffffffffffffffffff1673ffffffffffffffffffffffffffffffffffffffff1663a9059cbb33846040518363ffffffff1660e01b815260040161078f929190611e38565b602060405180830381600087803b1580156107a957600080fd5b505af11580156107bd573d6000803e3d6000fd5b505050506040513d601f19601f820116820180604052508101906107e19190611ac6565b610820576040517f08c379a000000000000000000000000000000000000000000000000000000000815260040161081790611f5e565b60405180910390fd5b919050565b600042600760003373ffffffffffffffffffffffffffffffffffffffff1673ffffffffffffffffffffffffffffffffffffffff1681526020019081526020016000208190555060006108756104ac565b90506000610881610dfc565b90506000821180156108935750600081115b156108c4576108bd816108af84876113a490919063ffffffff16565b6113ba90919063ffffffff16565b92506108dc565b6108d96103e8856113a490919063ffffffff16565b92505b6108e63384611828565b3373ffffffffffffffffffffffffffffffffffffffff167f4089141ea5e4c16575f5ebf65f1786497ea07c175846fc7745ef8d8986a4ff65858560405161092e9291906120b9565b60405180910390a2600660009054906101000a900473ffffffffffffffffffffffffffffffffffffffff1673ffffffffffffffffffffffffffffffffffffffff166323b872dd3330876040518463ffffffff1660e01b815260040161099593929190611e01565b602060405180830381600087803b1580156109af57600080fd5b505af11580156109c3573d6000803e3d6000fd5b505050506040513d601f19601f820116820180604052508101906109e79190611ac6565b6109f057600080fd5b5050919050565b60006012905090565b6000610aa2610a0d6111d1565b848460026000610a1b6111d1565b73ffffffffffffffffffffffffffffffffffffffff1673ffffffffffffffffffffffffffffffffffffffff16815260200190815260200160002060008873ffffffffffffffffffffffffffffffffffffffff1673ffffffffffffffffffffffffffffffffffffffff16815260200190815260200160002054610a9d9190612119565b6111d9565b6001905092915050565b6000600160008373ffffffffffffffffffffffffffffffffffffffff1673ffffffffffffffffffffffffffffffffffffffff168152602001908152602001600020549050919050565b610afd6111d1565b73ffffffffffffffffffffffffffffffffffffffff16610b1b610c2f565b73ffffffffffffffffffffffffffffffffffffffff1614610b71576040517f08c379a0000000000000000000000000000000000000000000000000000000008152600401610b6890611f9e565b60405180910390fd5b600073ffffffffffffffffffffffffffffffffffffffff1660008054906101000a900473ffffffffffffffffffffffffffffffffffffffff1673ffffffffffffffffffffffffffffffffffffffff167f8be0079c531659141344cd1fd0a4f28419497f9722a3daafe3b4186f6b6457e060405160405180910390a360008060006101000a81548173ffffffffffffffffffffffffffffffffffffffff021916908373ffffffffffffffffffffffffffffffffffffffff160217905550565b60008060009054906101000a900473ffffffffffffffffffffffffffffffffffffffff16905090565b606060058054610c67906122b6565b80601f0160208091040260200160405190810160405280929190818152602001828054610c93906122b6565b8015610ce05780601f10610cb557610100808354040283529160200191610ce0565b820191906000526020600020905b815481529060010190602001808311610cc357829003601f168201915b5050505050905090565b60008060026000610cf96111d1565b73ffffffffffffffffffffffffffffffffffffffff1673ffffffffffffffffffffffffffffffffffffffff16815260200190815260200160002060008573ffffffffffffffffffffffffffffffffffffffff1673ffffffffffffffffffffffffffffffffffffffff16815260200190815260200160002054905082811015610db6576040517f08c379a0000000000000000000000000000000000000000000000000000000008152600401610dad9061205e565b60405180910390fd5b610dd3610dc16111d1565b858584610dce91906121fa565b6111d9565b600191505092915050565b6000610df2610deb6111d1565b84846113d0565b6001905092915050565b6000600660009054906101000a900473ffffffffffffffffffffffffffffffffffffffff1673ffffffffffffffffffffffffffffffffffffffff166370a08231306040518263ffffffff1660e01b8152600401610e599190611de6565b60206040518083038186803b158015610e7157600080fd5b505afa158015610e85573d6000803e3d6000fd5b505050506040513d601f19601f82011682018060405250810190610ea99190611b18565b905090565b6000600260008473ffffffffffffffffffffffffffffffffffffffff1673ffffffffffffffffffffffffffffffffffffffff16815260200190815260200160002060008373ffffffffffffffffffffffffffffffffffffffff1673ffffffffffffffffffffffffffffffffffffffff16815260200190815260200160002054905092915050565b600660009054906101000a900473ffffffffffffffffffffffffffffffffffffffff1673ffffffffffffffffffffffffffffffffffffffff166323b872dd3330846040518463ffffffff1660e01b8152600401610f9493929190611e01565b602060405180830381600087803b158015610fae57600080fd5b505af1158015610fc2573d6000803e3d6000fd5b505050506040513d601f19601f82011682018060405250810190610fe69190611ac6565b611025576040517f08c379a000000000000000000000000000000000000000000000000000000000815260040161101c90611f1e565b60405180910390fd5b50565b6110306111d1565b73ffffffffffffffffffffffffffffffffffffffff1661104e610c2f565b73ffffffffffffffffffffffffffffffffffffffff16146110a4576040517f08c379a000000000000000000000000000000000000000000000000000000000815260040161109b90611f9e565b60405180910390fd5b600073ffffffffffffffffffffffffffffffffffffffff168173ffffffffffffffffffffffffffffffffffffffff161415611114576040517f08c379a000000000000000000000000000000000000000000000000000000000815260040161110b90611ede565b60405180910390fd5b8073ffffffffffffffffffffffffffffffffffffffff1660008054906101000a900473ffffffffffffffffffffffffffffffffffffffff1673ffffffffffffffffffffffffffffffffffffffff167f8be0079c531659141344cd1fd0a4f28419497f9722a3daafe3b4186f6b6457e060405160405180910390a3806000806101000a81548173ffffffffffffffffffffffffffffffffffffffff021916908373ffffffffffffffffffffffffffffffffffffffff16021790555050565b600033905090565b600073ffffffffffffffffffffffffffffffffffffffff168373ffffffffffffffffffffffffffffffffffffffff161415611249576040517f08c379a000000000000000000000000000000000000000000000000000000000815260040161124090611ffe565b60405180910390fd5b600073ffffffffffffffffffffffffffffffffffffffff168273ffffffffffffffffffffffffffffffffffffffff1614156112b9576040517f08c379a00000000000000000000000000000000000000000000000000000000081526004016112b090611efe565b60405180910390fd5b80600260008573ffffffffffffffffffffffffffffffffffffffff1673ffffffffffffffffffffffffffffffffffffffff16815260200190815260200160002060008473ffffffffffffffffffffffffffffffffffffffff1673ffffffffffffffffffffffffffffffffffffffff168152602001908152602001600020819055508173ffffffffffffffffffffffffffffffffffffffff168373ffffffffffffffffffffffffffffffffffffffff167f8c5be1e5ebec7d5bd14f71427d1e84f3dd0314c0f7b2291e5b200ac8c7c3b92583604051611397919061209e565b60405180910390a3505050565b600081836113b291906121a0565b905092915050565b600081836113c8919061216f565b905092915050565b600073ffffffffffffffffffffffffffffffffffffffff168373ffffffffffffffffffffffffffffffffffffffff161415611440576040517f08c379a000000000000000000000000000000000000000000000000000000000815260040161143790611fde565b60405180910390fd5b600073ffffffffffffffffffffffffffffffffffffffff168273ffffffffffffffffffffffffffffffffffffffff1614156114b0576040517f08c379a00000000000000000000000000000000000000000000000000000000081526004016114a790611e9e565b60405180910390fd5b6114bb83838361197d565b6000600160008573ffffffffffffffffffffffffffffffffffffffff1673ffffffffffffffffffffffffffffffffffffffff16815260200190815260200160002054905081811015611542576040517f08c379a000000000000000000000000000000000000000000000000000000000815260040161153990611f3e565b60405180910390fd5b818161154e91906121fa565b600160008673ffffffffffffffffffffffffffffffffffffffff1673ffffffffffffffffffffffffffffffffffffffff1681526020019081526020016000208190555081600160008573ffffffffffffffffffffffffffffffffffffffff1673ffffffffffffffffffffffffffffffffffffffff16815260200190815260200160002060008282546115e09190612119565b925050819055508273ffffffffffffffffffffffffffffffffffffffff168473ffffffffffffffffffffffffffffffffffffffff167fddf252ad1be2c89b69c2b068fc378daa952ba7f163c4a11628f55a4df523b3ef84604051611644919061209e565b60405180910390a350505050565b600073ffffffffffffffffffffffffffffffffffffffff168273ffffffffffffffffffffffffffffffffffffffff1614156116c2576040517f08c379a00000000000000000000000000000000000000000000000000000000081526004016116b990611fbe565b60405180910390fd5b6116ce8260008361197d565b6000600160008473ffffffffffffffffffffffffffffffffffffffff1673ffffffffffffffffffffffffffffffffffffffff16815260200190815260200160002054905081811015611755576040517f08c379a000000000000000000000000000000000000000000000000000000000815260040161174c90611ebe565b60405180910390fd5b818161176191906121fa565b600160008573ffffffffffffffffffffffffffffffffffffffff1673ffffffffffffffffffffffffffffffffffffffff1681526020019081526020016000208190555081600360008282546117b691906121fa565b92505081905550600073ffffffffffffffffffffffffffffffffffffffff168373ffffffffffffffffffffffffffffffffffffffff167fddf252ad1be2c89b69c2b068fc378daa952ba7f163c4a11628f55a4df523b3ef8460405161181b919061209e565b60405180910390a3505050565b600073ffffffffffffffffffffffffffffffffffffffff168273ffffffffffffffffffffffffffffffffffffffff161415611898576040517f08c379a000000000000000000000000000000000000000000000000000000000815260040161188f9061207e565b60405180910390fd5b6118a46000838361197d565b80600360008282546118b69190612119565b9250508190555080600160008473ffffffffffffffffffffffffffffffffffffffff1673ffffffffffffffffffffffffffffffffffffffff168152602001908152602001600020600082825461190c9190612119565b925050819055508173ffffffffffffffffffffffffffffffffffffffff16600073ffffffffffffffffffffffffffffffffffffffff167fddf252ad1be2c89b69c2b068fc378daa952ba7f163c4a11628f55a4df523b3ef83604051611971919061209e565b60405180910390a35050565b505050565b600081359050611991816127de565b92915050565b6000815190506119a6816127f5565b92915050565b6000813590506119bb8161280c565b92915050565b6000815190506119d08161280c565b92915050565b6000602082840312156119e857600080fd5b60006119f684828501611982565b91505092915050565b60008060408385031215611a1257600080fd5b6000611a2085828601611982565b9250506020611a3185828601611982565b9150509250929050565b600080600060608486031215611a5057600080fd5b6000611a5e86828701611982565b9350506020611a6f86828701611982565b9250506040611a80868287016119ac565b9150509250925092565b60008060408385031215611a9d57600080fd5b6000611aab85828601611982565b9250506020611abc858286016119ac565b9150509250929050565b600060208284031215611ad857600080fd5b6000611ae684828501611997565b91505092915050565b600060208284031215611b0157600080fd5b6000611b0f848285016119ac565b91505092915050565b600060208284031215611b2a57600080fd5b6000611b38848285016119c1565b91505092915050565b611b4a8161222e565b82525050565b611b5981612240565b82525050565b6000611b6a826120fd565b611b748185612108565b9350611b84818560208601612283565b611b8d81612375565b840191505092915050565b6000611ba5602383612108565b9150611bb082612386565b604082019050919050565b6000611bc8602283612108565b9150611bd3826123d5565b604082019050919050565b6000611beb602683612108565b9150611bf682612424565b604082019050919050565b6000611c0e602283612108565b9150611c1982612473565b604082019050919050565b6000611c31605083612108565b9150611c3c826124c2565b606082019050919050565b6000611c54602683612108565b9150611c5f82612537565b604082019050919050565b6000611c77601283612108565b9150611c8282612586565b602082019050919050565b6000611c9a602883612108565b9150611ca5826125af565b604082019050919050565b6000611cbd602083612108565b9150611cc8826125fe565b602082019050919050565b6000611ce0602183612108565b9150611ceb82612627565b604082019050919050565b6000611d03602583612108565b9150611d0e82612676565b604082019050919050565b6000611d26602483612108565b9150611d31826126c5565b604082019050919050565b6000611d49601983612108565b9150611d5482612714565b602082019050919050565b6000611d6c601983612108565b9150611d778261273d565b602082019050919050565b6000611d8f602583612108565b9150611d9a82612766565b604082019050919050565b6000611db2601f83612108565b9150611dbd826127b5565b602082019050919050565b611dd18161226c565b82525050565b611de081612276565b82525050565b6000602082019050611dfb6000830184611b41565b92915050565b6000606082019050611e166000830186611b41565b611e236020830185611b41565b611e306040830184611dc8565b949350505050565b6000604082019050611e4d6000830185611b41565b611e5a6020830184611dc8565b9392505050565b6000602082019050611e766000830184611b50565b92915050565b60006020820190508181036000830152611e968184611b5f565b905092915050565b60006020820190508181036000830152611eb781611b98565b9050919050565b60006020820190508181036000830152611ed781611bbb565b9050919050565b60006020820190508181036000830152611ef781611bde565b9050919050565b60006020820190508181036000830152611f1781611c01565b9050919050565b60006020820190508181036000830152611f3781611c24565b9050919050565b60006020820190508181036000830152611f5781611c47565b9050919050565b60006020820190508181036000830152611f7781611c6a565b9050919050565b60006020820190508181036000830152611f9781611c8d565b9050919050565b60006020820190508181036000830152611fb781611cb0565b9050919050565b60006020820190508181036000830152611fd781611cd3565b9050919050565b60006020820190508181036000830152611ff781611cf6565b9050919050565b6000602082019050818103600083015261201781611d19565b9050919050565b6000602082019050818103600083015261203781611d3c565b9050919050565b6000602082019050818103600083015261205781611d5f565b9050919050565b6000602082019050818103600083015261207781611d82565b9050919050565b6000602082019050818103600083015261209781611da5565b9050919050565b60006020820190506120b36000830184611dc8565b92915050565b60006040820190506120ce6000830185611dc8565b6120db6020830184611dc8565b9392505050565b60006020820190506120f76000830184611dd7565b92915050565b600081519050919050565b600082825260208201905092915050565b60006121248261226c565b915061212f8361226c565b9250827fffffffffffffffffffffffffffffffffffffffffffffffffffffffffffffffff03821115612164576121636122e8565b5b828201905092915050565b600061217a8261226c565b91506121858361226c565b92508261219557612194612317565b5b828204905092915050565b60006121ab8261226c565b91506121b68361226c565b9250817fffffffffffffffffffffffffffffffffffffffffffffffffffffffffffffffff04831182151516156121ef576121ee6122e8565b5b828202905092915050565b60006122058261226c565b91506122108361226c565b925082821015612223576122226122e8565b5b828203905092915050565b60006122398261224c565b9050919050565b60008115159050919050565b600073ffffffffffffffffffffffffffffffffffffffff82169050919050565b6000819050919050565b600060ff82169050919050565b60005b838110156122a1578082015181840152602081019050612286565b838111156122b0576000848401525b50505050565b600060028204905060018216806122ce57607f821691505b602082108114156122e2576122e1612346565b5b50919050565b7f4e487b7100000000000000000000000000000000000000000000000000000000600052601160045260246000fd5b7f4e487b7100000000000000000000000000000000000000000000000000000000600052601260045260246000fd5b7f4e487b7100000000000000000000000000000000000000000000000000000000600052602260045260246000fd5b6000601f19601f8301169050919050565b7f45524332303a207472616e7366657220746f20746865207a65726f206164647260008201527f6573730000000000000000000000000000000000000000000000000000000000602082015250565b7f45524332303a206275726e20616d6f756e7420657863656564732062616c616e60008201527f6365000000000000000000000000000000000000000000000000000000000000602082015250565b7f4f776e61626c653a206e6577206f776e657220697320746865207a65726f206160008201527f6464726573730000000000000000000000000000000000000000000000000000602082015250565b7f45524332303a20617070726f766520746f20746865207a65726f20616464726560008201527f7373000000000000000000000000000000000000000000000000000000000000602082015250565b7f546f6b656e207472616e73666572206572726f723a20506c65617365206c6f7760008201527f65722074686520616d6f756e74206f66207072656d69756d732074686174207960208201527f6f752077616e7420746f2073656e642e00000000000000000000000000000000604082015250565b7f45524332303a207472616e7366657220616d6f756e742065786365656473206260008201527f616c616e63650000000000000000000000000000000000000000000000000000602082015250565b7f496e73756666696369656e742066756e64730000000000000000000000000000600082015250565b7f45524332303a207472616e7366657220616d6f756e742065786365656473206160008201527f6c6c6f77616e6365000000000000000000000000000000000000000000000000602082015250565b7f4f776e61626c653a2063616c6c6572206973206e6f7420746865206f776e6572600082015250565b7f45524332303a206275726e2066726f6d20746865207a65726f2061646472657360008201527f7300000000000000000000000000000000000000000000000000000000000000602082015250565b7f45524332303a207472616e736665722066726f6d20746865207a65726f20616460008201527f6472657373000000000000000000000000000000000000000000000000000000602082015250565b7f45524332303a20617070726f76652066726f6d20746865207a65726f2061646460008201527f7265737300000000000000000000000000000000000000000000000000000000602082015250565b7f506f6f6c3a20416d6f756e7420697320746f6f20736d616c6c00000000000000600082015250565b7f506f6f6c3a20416d6f756e7420697320746f6f206c6172676500000000000000600082015250565b7f45524332303a2064656372656173656420616c6c6f77616e63652062656c6f7760008201527f207a65726f000000000000000000000000000000000000000000000000000000602082015250565b7f45524332303a206d696e7420746f20746865207a65726f206164647265737300600082015250565b6127e78161222e565b81146127f257600080fd5b50565b6127fe81612240565b811461280957600080fd5b50565b6128158161226c565b811461282057600080fd5b5056fea2646970667358221220d31d5da4ecc56918f659797469b49427213e35b8bc9682ed789168f31f03040b64736f6c63430008030033",
  "immutableReferences": {},
  "source": "// SPDX-License-Identifier: GPL-3.0\npragma solidity 0.8.3;\n\nimport \"./DaiToken.sol\";\nimport \"./LiquidityPool.sol\";\nimport \"./Options.sol\";\n\ncontract Put is Options{\n\n    string public name = \"Put Hedge Option Contract\";\n    DaiToken token;\n    LiquidityPool pool;\n\n    constructor(DaiToken _token) Options(Options.OptionType.Put) {\n        token = _token;\n        pool = new LiquidityPool(token);\n        //approve();\n    }\n\n    /**\n     * @notice Allows the ERC pool contract to receive and send tokens\n     */\n    function approve() public {\n        require(token.approve(address(pool), uint256(10000000000000000000000000)), \"token approve failed\");\n    }\n\n    /**\n     * @notice Sends premiums to the ERC liquidity pool contract\n     */\n    function sendPremium(uint256 amount) internal override returns (uint premium) {\n        /*\n        uint currentPrice = uint(priceProvider.latestAnswer());\n        address[] memory path = new address[](2);\n        path[0] = uniswapRouter.WETH();\n        path[1] = address(token);\n        uint[] memory amounts = uniswapRouter.swapExactETHForTokens {\n            value: amount\n        }(\n            amount.mul(currentPrice).mul(maxSpread).div(1e10),\n            path,\n            address(this),\n            now\n        );\n        premium = amounts[amounts.length - 1];\n        */\n        premium = 10;\n        pool.sendPremium(amount);\n    }\n\n\n\n\n}",
  "sourcePath": "/home/caique/Documentos/Cryptobal/project/hedge-poc/src/contracts/Put.sol",
  "compiler": {
    "name": "solc",
    "version": "0.8.3+commit.8d00100c.Emscripten.clang"
  },
  "schemaVersion": "3.3.4",
  "updatedAt": "2021-04-06T21:14:47.390Z",
  "networkType": "ethereum",
  "devdoc": {
    "kind": "dev",
    "methods": {
      "owner()": {
        "details": "Returns the address of the current owner."
      },
      "renounceOwnership()": {
        "details": "Leaves the contract without owner. It will not be possible to call `onlyOwner` functions anymore. Can only be called by the current owner. NOTE: Renouncing ownership will leave the contract without an owner, thereby removing any functionality that is only available to the owner."
      },
      "transferOwnership(address)": {
        "details": "Transfers ownership of the contract to a new account (`newOwner`). Can only be called by the current owner."
      }
    },
    "version": 1
  },
  "userdoc": {
    "kind": "user",
    "methods": {
      "approve()": {
        "notice": "Allows the ERC pool contract to receive and send tokens"
      }
    },
    "version": 1
  }
}