{
  "contractName": "Put",
  "abi": [
    {
      "inputs": [
        {
          "internalType": "contract DaiToken",
          "name": "_token",
          "type": "address"
        },
        {
          "internalType": "contract FakePriceProvider",
          "name": "_fakePriceProvider",
          "type": "address"
        },
        {
          "internalType": "contract FakeSwap",
          "name": "_fakeSwap",
          "type": "address"
        }
      ],
      "stateMutability": "nonpayable",
      "type": "constructor"
    },
    {
      "anonymous": false,
      "inputs": [
        {
          "indexed": true,
          "internalType": "address",
          "name": "account",
          "type": "address"
        },
        {
          "indexed": false,
          "internalType": "uint256",
          "name": "settlementFee",
          "type": "uint256"
        },
        {
          "indexed": false,
          "internalType": "uint256",
          "name": "totalFee",
          "type": "uint256"
        }
      ],
      "name": "Create",
      "type": "event"
    },
    {
      "anonymous": false,
      "inputs": [
        {
          "indexed": true,
          "internalType": "address",
          "name": "previousOwner",
          "type": "address"
        },
        {
          "indexed": true,
          "internalType": "address",
          "name": "newOwner",
          "type": "address"
        }
      ],
      "name": "OwnershipTransferred",
      "type": "event"
    },
    {
      "inputs": [],
      "name": "fakeSwap",
      "outputs": [
        {
          "internalType": "contract FakeSwap",
          "name": "",
          "type": "address"
        }
      ],
      "stateMutability": "view",
      "type": "function",
      "constant": true
    },
    {
      "inputs": [],
      "name": "maxSpread",
      "outputs": [
        {
          "internalType": "uint256",
          "name": "",
          "type": "uint256"
        }
      ],
      "stateMutability": "view",
      "type": "function",
      "constant": true
    },
    {
      "inputs": [],
      "name": "name",
      "outputs": [
        {
          "internalType": "string",
          "name": "",
          "type": "string"
        }
      ],
      "stateMutability": "view",
      "type": "function",
      "constant": true
    },
    {
      "inputs": [],
      "name": "owner",
      "outputs": [
        {
          "internalType": "address",
          "name": "",
          "type": "address"
        }
      ],
      "stateMutability": "view",
      "type": "function",
      "constant": true
    },
    {
      "inputs": [],
      "name": "pool",
      "outputs": [
        {
          "internalType": "contract LiquidityPool",
          "name": "",
          "type": "address"
        }
      ],
      "stateMutability": "view",
      "type": "function",
      "constant": true
    },
    {
      "inputs": [],
      "name": "renounceOwnership",
      "outputs": [],
      "stateMutability": "nonpayable",
      "type": "function"
    },
    {
      "inputs": [
        {
          "internalType": "address",
          "name": "newOwner",
          "type": "address"
        }
      ],
      "name": "transferOwnership",
      "outputs": [],
      "stateMutability": "nonpayable",
      "type": "function"
    },
    {
      "inputs": [],
      "name": "approve",
      "outputs": [],
      "stateMutability": "nonpayable",
      "type": "function"
    },
    {
      "inputs": [
        {
          "internalType": "uint256",
          "name": "amount",
          "type": "uint256"
        }
      ],
      "name": "sendPremium",
      "outputs": [
        {
          "internalType": "uint256",
          "name": "premium",
          "type": "uint256"
        }
      ],
      "stateMutability": "nonpayable",
      "type": "function"
    }
  ],
  "bytecode": "0x60806040526040518060400160405280601981526020017f507574204865646765204f7074696f6e20436f6e747261637400000000000000815250600290805190602001906200005192919062000435565b50605f6005553480156200006457600080fd5b5060405162004cdc38038062004cdc83398181016040528101906200008a91906200057b565b60008260006200009f6200030760201b60201c565b9050806000806101000a81548173ffffffffffffffffffffffffffffffffffffffff021916908373ffffffffffffffffffffffffffffffffffffffff1602179055508073ffffffffffffffffffffffffffffffffffffffff16600073ffffffffffffffffffffffffffffffffffffffff167f8be0079c531659141344cd1fd0a4f28419497f9722a3daafe3b4186f6b6457e060405160405180910390a35081600060146101000a81548160ff0219169083600181111562000189577f4e487b7100000000000000000000000000000000000000000000000000000000600052602160045260246000fd5b021790555080600160006101000a81548173ffffffffffffffffffffffffffffffffffffffff021916908373ffffffffffffffffffffffffffffffffffffffff160217905550505082600360006101000a81548173ffffffffffffffffffffffffffffffffffffffff021916908373ffffffffffffffffffffffffffffffffffffffff16021790555080600660006101000a81548173ffffffffffffffffffffffffffffffffffffffff021916908373ffffffffffffffffffffffffffffffffffffffff160217905550600360009054906101000a900473ffffffffffffffffffffffffffffffffffffffff166040516200028490620004c6565b62000290919062000658565b604051809103906000f080158015620002ad573d6000803e3d6000fd5b50600460006101000a81548173ffffffffffffffffffffffffffffffffffffffff021916908373ffffffffffffffffffffffffffffffffffffffff160217905550620002fe6200030f60201b60201c565b50505062000860565b600033905090565b600360009054906101000a900473ffffffffffffffffffffffffffffffffffffffff1673ffffffffffffffffffffffffffffffffffffffff1663095ea7b3600460009054906101000a900473ffffffffffffffffffffffffffffffffffffffff166a084595161401484a0000006040518363ffffffff1660e01b81526004016200039b9291906200062b565b602060405180830381600087803b158015620003b657600080fd5b505af1158015620003cb573d6000803e3d6000fd5b505050506040513d601f19601f82011682018060405250810190620003f191906200054f565b62000433576040517f08c379a00000000000000000000000000000000000000000000000000000000081526004016200042a9062000675565b60405180910390fd5b565b82805462000443906200076a565b90600052602060002090601f016020900481019282620004675760008555620004b3565b82601f106200048257805160ff1916838001178555620004b3565b82800160010185558215620004b3579182015b82811115620004b257825182559160200191906001019062000495565b5b509050620004c29190620004d4565b5090565b612f658062001d7783390190565b5b80821115620004ef576000816000905550600101620004d5565b5090565b6000815190506200050481620007f8565b92915050565b6000815190506200051b8162000812565b92915050565b60008151905062000532816200082c565b92915050565b600081519050620005498162000846565b92915050565b6000602082840312156200056257600080fd5b60006200057284828501620004f3565b91505092915050565b6000806000606084860312156200059157600080fd5b6000620005a1868287016200050a565b9350506020620005b48682870162000521565b9250506040620005c78682870162000538565b9150509250925092565b620005dc81620006a8565b82525050565b620005ed8162000742565b82525050565b60006200060260148362000697565b91506200060f82620007cf565b602082019050919050565b620006258162000738565b82525050565b6000604082019050620006426000830185620005d1565b6200065160208301846200061a565b9392505050565b60006020820190506200066f6000830184620005e2565b92915050565b600060208201905081810360008301526200069081620005f3565b9050919050565b600082825260208201905092915050565b6000620006b58262000718565b9050919050565b6000620006c98262000718565b9050919050565b60008115159050919050565b6000620006e982620006a8565b9050919050565b6000620006fd82620006a8565b9050919050565b60006200071182620006bc565b9050919050565b600073ffffffffffffffffffffffffffffffffffffffff82169050919050565b6000819050919050565b60006200074f8262000756565b9050919050565b6000620007638262000718565b9050919050565b600060028204905060018216806200078357607f821691505b602082108114156200079a5762000799620007a0565b5b50919050565b7f4e487b7100000000000000000000000000000000000000000000000000000000600052602260045260246000fd5b7f746f6b656e20617070726f7665206661696c6564000000000000000000000000600082015250565b6200080381620006d0565b81146200080f57600080fd5b50565b6200081d81620006dc565b81146200082957600080fd5b50565b6200083781620006f0565b81146200084357600080fd5b50565b620008518162000704565b81146200085d57600080fd5b50565b61150780620008706000396000f3fe608060405234801561001057600080fd5b50600436106100935760003560e01c8063796e8f9011610066578063796e8f90146100e85780638da5cb5b14610106578063bff22cd714610124578063ed922a0614610142578063f2fde38b1461017257610093565b806306fdde031461009857806312424e3f146100b657806316f0115b146100c0578063715018a6146100de575b600080fd5b6100a061018e565b6040516100ad9190610f98565b60405180910390f35b6100be61021c565b005b6100c8610339565b6040516100d59190610f7d565b60405180910390f35b6100e661035f565b005b6100f0610499565b6040516100fd919061101a565b60405180910390f35b61010e61049f565b60405161011b9190610ef5565b60405180910390f35b61012c6104c8565b6040516101399190610f62565b60405180910390f35b61015c60048036038101906101579190610d31565b6104ee565b604051610169919061101a565b60405180910390f35b61018c60048036038101906101879190610c75565b610999565b005b6002805461019b906112bb565b80601f01602080910402602001604051908101604052809291908181526020018280546101c7906112bb565b80156102145780601f106101e957610100808354040283529160200191610214565b820191906000526020600020905b8154815290600101906020018083116101f757829003601f168201915b505050505081565b600360009054906101000a900473ffffffffffffffffffffffffffffffffffffffff1673ffffffffffffffffffffffffffffffffffffffff1663095ea7b3600460009054906101000a900473ffffffffffffffffffffffffffffffffffffffff166a084595161401484a0000006040518363ffffffff1660e01b81526004016102a6929190610f39565b602060405180830381600087803b1580156102c057600080fd5b505af11580156102d4573d6000803e3d6000fd5b505050506040513d601f19601f820116820180604052508101906102f89190610d08565b610337576040517f08c379a000000000000000000000000000000000000000000000000000000000815260040161032e90610fda565b60405180910390fd5b565b600460009054906101000a900473ffffffffffffffffffffffffffffffffffffffff1681565b610367610b42565b73ffffffffffffffffffffffffffffffffffffffff1661038561049f565b73ffffffffffffffffffffffffffffffffffffffff16146103db576040517f08c379a00000000000000000000000000000000000000000000000000000000081526004016103d290610ffa565b60405180910390fd5b600073ffffffffffffffffffffffffffffffffffffffff1660008054906101000a900473ffffffffffffffffffffffffffffffffffffffff1673ffffffffffffffffffffffffffffffffffffffff167f8be0079c531659141344cd1fd0a4f28419497f9722a3daafe3b4186f6b6457e060405160405180910390a360008060006101000a81548173ffffffffffffffffffffffffffffffffffffffff021916908373ffffffffffffffffffffffffffffffffffffffff160217905550565b60055481565b60008060009054906101000a900473ffffffffffffffffffffffffffffffffffffffff16905090565b600660009054906101000a900473ffffffffffffffffffffffffffffffffffffffff1681565b600080600160009054906101000a900473ffffffffffffffffffffffffffffffffffffffff1673ffffffffffffffffffffffffffffffffffffffff166350d25bcd6040518163ffffffff1660e01b815260040160206040518083038186803b15801561055957600080fd5b505afa15801561056d573d6000803e3d6000fd5b505050506040513d601f19601f820116820180604052508101906105919190610d5a565b90506000600267ffffffffffffffff8111156105d6577f4e487b7100000000000000000000000000000000000000000000000000000000600052604160045260246000fd5b6040519080825280602002602001820160405280156106045781602001602082028036833780820191505090505b509050600660009054906101000a900473ffffffffffffffffffffffffffffffffffffffff1673ffffffffffffffffffffffffffffffffffffffff1663ad5c46486040518163ffffffff1660e01b815260040160206040518083038186803b15801561066f57600080fd5b505afa158015610683573d6000803e3d6000fd5b505050506040513d601f19601f820116820180604052508101906106a79190610c9e565b816000815181106106e1577f4e487b7100000000000000000000000000000000000000000000000000000000600052603260045260246000fd5b602002602001019073ffffffffffffffffffffffffffffffffffffffff16908173ffffffffffffffffffffffffffffffffffffffff1681525050600360009054906101000a900473ffffffffffffffffffffffffffffffffffffffff1681600181518110610778577f4e487b7100000000000000000000000000000000000000000000000000000000600052603260045260246000fd5b602002602001019073ffffffffffffffffffffffffffffffffffffffff16908173ffffffffffffffffffffffffffffffffffffffff16815250506000600660009054906101000a900473ffffffffffffffffffffffffffffffffffffffff1673ffffffffffffffffffffffffffffffffffffffff16637ff36ab5866108316402540be4006108236005546108158a8d610b4a90919063ffffffff16565b610b4a90919063ffffffff16565b610b6090919063ffffffff16565b8530426040518663ffffffff1660e01b81526004016108539493929190611035565b6000604051808303818588803b15801561086c57600080fd5b505af1158015610880573d6000803e3d6000fd5b50505050506040513d6000823e3d601f19601f820116820180604052508101906108aa9190610cc7565b905080600182516108bb91906111b2565b815181106108f2577f4e487b7100000000000000000000000000000000000000000000000000000000600052603260045260246000fd5b602002602001015193506000339050600460009054906101000a900473ffffffffffffffffffffffffffffffffffffffff1673ffffffffffffffffffffffffffffffffffffffff1663e040e78082886040518363ffffffff1660e01b815260040161095e929190610f10565b600060405180830381600087803b15801561097857600080fd5b505af115801561098c573d6000803e3d6000fd5b5050505050505050919050565b6109a1610b42565b73ffffffffffffffffffffffffffffffffffffffff166109bf61049f565b73ffffffffffffffffffffffffffffffffffffffff1614610a15576040517f08c379a0000000000000000000000000000000000000000000000000000000008152600401610a0c90610ffa565b60405180910390fd5b600073ffffffffffffffffffffffffffffffffffffffff168173ffffffffffffffffffffffffffffffffffffffff161415610a85576040517f08c379a0000000000000000000000000000000000000000000000000000000008152600401610a7c90610fba565b60405180910390fd5b8073ffffffffffffffffffffffffffffffffffffffff1660008054906101000a900473ffffffffffffffffffffffffffffffffffffffff1673ffffffffffffffffffffffffffffffffffffffff167f8be0079c531659141344cd1fd0a4f28419497f9722a3daafe3b4186f6b6457e060405160405180910390a3806000806101000a81548173ffffffffffffffffffffffffffffffffffffffff021916908373ffffffffffffffffffffffffffffffffffffffff16021790555050565b600033905090565b60008183610b589190611158565b905092915050565b60008183610b6e9190611127565b905092915050565b6000610b89610b84846110a6565b611081565b90508083825260208201905082856020860282011115610ba857600080fd5b60005b85811015610bd85781610bbe8882610c60565b845260208401935060208301925050600181019050610bab565b5050509392505050565b600081359050610bf18161148c565b92915050565b600081519050610c068161148c565b92915050565b600082601f830112610c1d57600080fd5b8151610c2d848260208601610b76565b91505092915050565b600081519050610c45816114a3565b92915050565b600081359050610c5a816114ba565b92915050565b600081519050610c6f816114ba565b92915050565b600060208284031215610c8757600080fd5b6000610c9584828501610be2565b91505092915050565b600060208284031215610cb057600080fd5b6000610cbe84828501610bf7565b91505092915050565b600060208284031215610cd957600080fd5b600082015167ffffffffffffffff811115610cf357600080fd5b610cff84828501610c0c565b91505092915050565b600060208284031215610d1a57600080fd5b6000610d2884828501610c36565b91505092915050565b600060208284031215610d4357600080fd5b6000610d5184828501610c4b565b91505092915050565b600060208284031215610d6c57600080fd5b6000610d7a84828501610c60565b91505092915050565b6000610d8f8383610daa565b60208301905092915050565b610da4816111f8565b82525050565b610db3816111e6565b82525050565b610dc2816111e6565b82525050565b6000610dd3826110e2565b610ddd8185611105565b9350610de8836110d2565b8060005b83811015610e19578151610e008882610d83565b9750610e0b836110f8565b925050600181019050610dec565b5085935050505092915050565b610e2f81611240565b82525050565b610e3e81611264565b82525050565b6000610e4f826110ed565b610e598185611116565b9350610e69818560208601611288565b610e72816113da565b840191505092915050565b6000610e8a602683611116565b9150610e95826113eb565b604082019050919050565b6000610ead601483611116565b9150610eb88261143a565b602082019050919050565b6000610ed0602083611116565b9150610edb82611463565b602082019050919050565b610eef81611236565b82525050565b6000602082019050610f0a6000830184610db9565b92915050565b6000604082019050610f256000830185610d9b565b610f326020830184610ee6565b9392505050565b6000604082019050610f4e6000830185610db9565b610f5b6020830184610ee6565b9392505050565b6000602082019050610f776000830184610e26565b92915050565b6000602082019050610f926000830184610e35565b92915050565b60006020820190508181036000830152610fb28184610e44565b905092915050565b60006020820190508181036000830152610fd381610e7d565b9050919050565b60006020820190508181036000830152610ff381610ea0565b9050919050565b6000602082019050818103600083015261101381610ec3565b9050919050565b600060208201905061102f6000830184610ee6565b92915050565b600060808201905061104a6000830187610ee6565b818103602083015261105c8186610dc8565b905061106b6040830185610db9565b6110786060830184610ee6565b95945050505050565b600061108b61109c565b905061109782826112ed565b919050565b6000604051905090565b600067ffffffffffffffff8211156110c1576110c06113ab565b5b602082029050602081019050919050565b6000819050602082019050919050565b600081519050919050565b600081519050919050565b6000602082019050919050565b600082825260208201905092915050565b600082825260208201905092915050565b600061113282611236565b915061113d83611236565b92508261114d5761114c61134d565b5b828204905092915050565b600061116382611236565b915061116e83611236565b9250817fffffffffffffffffffffffffffffffffffffffffffffffffffffffffffffffff04831182151516156111a7576111a661131e565b5b828202905092915050565b60006111bd82611236565b91506111c883611236565b9250828210156111db576111da61131e565b5b828203905092915050565b60006111f182611216565b9050919050565b600061120382611216565b9050919050565b60008115159050919050565b600073ffffffffffffffffffffffffffffffffffffffff82169050919050565b6000819050919050565b600061124b82611252565b9050919050565b600061125d82611216565b9050919050565b600061126f82611276565b9050919050565b600061128182611216565b9050919050565b60005b838110156112a657808201518184015260208101905061128b565b838111156112b5576000848401525b50505050565b600060028204905060018216806112d357607f821691505b602082108114156112e7576112e661137c565b5b50919050565b6112f6826113da565b810181811067ffffffffffffffff82111715611315576113146113ab565b5b80604052505050565b7f4e487b7100000000000000000000000000000000000000000000000000000000600052601160045260246000fd5b7f4e487b7100000000000000000000000000000000000000000000000000000000600052601260045260246000fd5b7f4e487b7100000000000000000000000000000000000000000000000000000000600052602260045260246000fd5b7f4e487b7100000000000000000000000000000000000000000000000000000000600052604160045260246000fd5b6000601f19601f8301169050919050565b7f4f776e61626c653a206e6577206f776e657220697320746865207a65726f206160008201527f6464726573730000000000000000000000000000000000000000000000000000602082015250565b7f746f6b656e20617070726f7665206661696c6564000000000000000000000000600082015250565b7f4f776e61626c653a2063616c6c6572206973206e6f7420746865206f776e6572600082015250565b611495816111e6565b81146114a057600080fd5b50565b6114ac8161120a565b81146114b757600080fd5b50565b6114c381611236565b81146114ce57600080fd5b5056fea264697066735822122038057089b55846589dafd8c58c9a5d6f5c49d46793778c7837473748b98116d264736f6c6343000803003360806040523480156200001157600080fd5b5060405162002f6538038062002f6583398181016040528101906200003791906200029e565b6040518060400160405280601281526020017f486567696320444149204c5020546f6b656e00000000000000000000000000008152506040518060400160405280600881526020017f77726974654441490000000000000000000000000000000000000000000000008152506000620000b5620001cf60201b60201c565b9050806000806101000a81548173ffffffffffffffffffffffffffffffffffffffff021916908373ffffffffffffffffffffffffffffffffffffffff1602179055508073ffffffffffffffffffffffffffffffffffffffff16600073ffffffffffffffffffffffffffffffffffffffff167f8be0079c531659141344cd1fd0a4f28419497f9722a3daafe3b4186f6b6457e060405160405180910390a35081600490805190602001906200016b929190620001d7565b50806005908051906020019062000184929190620001d7565b50505080600660006101000a81548173ffffffffffffffffffffffffffffffffffffffff021916908373ffffffffffffffffffffffffffffffffffffffff1602179055505062000391565b600033905090565b828054620001e59062000312565b90600052602060002090601f01602090048101928262000209576000855562000255565b82601f106200022457805160ff191683800117855562000255565b8280016001018555821562000255579182015b828111156200025457825182559160200191906001019062000237565b5b50905062000264919062000268565b5090565b5b808211156200028357600081600090555060010162000269565b5090565b600081519050620002988162000377565b92915050565b600060208284031215620002b157600080fd5b6000620002c18482850162000287565b91505092915050565b6000620002d782620002f2565b9050919050565b6000620002eb82620002ca565b9050919050565b600073ffffffffffffffffffffffffffffffffffffffff82169050919050565b600060028204905060018216806200032b57607f821691505b6020821081141562000342576200034162000348565b5b50919050565b7f4e487b7100000000000000000000000000000000000000000000000000000000600052602260045260246000fd5b6200038281620002de565b81146200038e57600080fd5b50565b612bc480620003a16000396000f3fe608060405234801561001057600080fd5b506004361061012c5760003560e01c8063715018a6116100ad578063ad7a672f11610071578063ad7a672f14610381578063d0679d341461039f578063dd62ed3e146103bb578063e040e780146103eb578063f2fde38b146104075761012c565b8063715018a6146102db5780638da5cb5b146102e557806395d89b4114610303578063a457c2d714610321578063a9059cbb146103515761012c565b80632e1a7d4d116100f45780632e1a7d4d146101fd5780632e2ebe061461022d578063313ce5671461025d578063395093511461027b57806370a08231146102ab5761012c565b806306fdde0314610131578063095ea7b31461014f57806318160ddd1461017f57806321e5e2c41461019d57806323b872dd146101cd575b600080fd5b610139610423565b6040516101469190612188565b60405180910390f35b61016960048036038101906101649190611d27565b6104b5565b604051610176919061216d565b60405180910390f35b6101876104d3565b60405161019491906123aa565b60405180910390f35b6101b760048036038101906101b29190611c37565b6104dd565b6040516101c491906123aa565b60405180910390f35b6101e760048036038101906101e29190611cd8565b610539565b6040516101f4919061216d565b60405180910390f35b61021760048036038101906102129190611d8c565b61063a565b60405161022491906123aa565b60405180910390f35b61024760048036038101906102429190611d8c565b61084c565b60405161025491906123aa565b60405180910390f35b610265610a1e565b60405161027291906123ee565b60405180910390f35b61029560048036038101906102909190611d27565b610a27565b6040516102a2919061216d565b60405180910390f35b6102c560048036038101906102c09190611c37565b610ad3565b6040516102d291906123aa565b60405180910390f35b6102e3610b1c565b005b6102ed610c56565b6040516102fa9190612092565b60405180910390f35b61030b610c7f565b6040516103189190612188565b60405180910390f35b61033b60048036038101906103369190611d27565b610d11565b604051610348919061216d565b60405180910390f35b61036b60048036038101906103669190611d27565b610e05565b604051610378919061216d565b60405180910390f35b610389610e23565b60405161039691906123aa565b60405180910390f35b6103b960048036038101906103b49190611c60565b610ed5565b005b6103d560048036038101906103d09190611c9c565b61107d565b6040516103e291906123aa565b60405180910390f35b61040560048036038101906104009190611c60565b611104565b005b610421600480360381019061041c9190611c37565b611274565b005b6060600480546104329061260a565b80601f016020809104026020016040519081016040528092919081815260200182805461045e9061260a565b80156104ab5780601f10610480576101008083540402835291602001916104ab565b820191906000526020600020905b81548152906001019060200180831161048e57829003601f168201915b5050505050905090565b60006104c96104c261141d565b8484611425565b6001905092915050565b6000600354905090565b6000806104e86104d3565b9050600081111561052e576105278161051961050386610ad3565b61050b610e23565b6115f090919063ffffffff16565b61160690919063ffffffff16565b9150610533565b600091505b50919050565b600061054684848461161c565b6000600260008673ffffffffffffffffffffffffffffffffffffffff1673ffffffffffffffffffffffffffffffffffffffff168152602001908152602001600020600061059161141d565b73ffffffffffffffffffffffffffffffffffffffff1673ffffffffffffffffffffffffffffffffffffffff16815260200190815260200160002054905082811015610611576040517f08c379a00000000000000000000000000000000000000000000000000000000081526004016106089061228a565b60405180910390fd5b61062e8561061d61141d565b85846106299190612506565b611425565b60019150509392505050565b600061066f610647610e23565b6106616106526104d3565b856115f090919063ffffffff16565b61160690919063ffffffff16565b905061067a33610ad3565b8111156106bc576040517f08c379a00000000000000000000000000000000000000000000000000000000081526004016106b39061234a565b60405180910390fd5b600081116106ff576040517f08c379a00000000000000000000000000000000000000000000000000000000081526004016106f69061232a565b60405180910390fd5b610709338261189e565b3373ffffffffffffffffffffffffffffffffffffffff167ff279e6a1f5e320cca91135676d9cb6e44ca8a08c0b88342bcdb1144f6511b56883836040516107519291906123c5565b60405180910390a2600660009054906101000a900473ffffffffffffffffffffffffffffffffffffffff1673ffffffffffffffffffffffffffffffffffffffff1663a9059cbb33846040518363ffffffff1660e01b81526004016107b6929190612144565b602060405180830381600087803b1580156107d057600080fd5b505af11580156107e4573d6000803e3d6000fd5b505050506040513d601f19601f820116820180604052508101906108089190611d63565b610847576040517f08c379a000000000000000000000000000000000000000000000000000000000815260040161083e9061226a565b60405180910390fd5b919050565b600042600760003373ffffffffffffffffffffffffffffffffffffffff1673ffffffffffffffffffffffffffffffffffffffff16815260200190815260200160002081905550600061089c6104d3565b905060006108a8610e23565b90506000821180156108ba5750600081115b156108eb576108e4816108d684876115f090919063ffffffff16565b61160690919063ffffffff16565b9250610903565b6109006103e8856115f090919063ffffffff16565b92505b61090d3384611a74565b3373ffffffffffffffffffffffffffffffffffffffff167f4089141ea5e4c16575f5ebf65f1786497ea07c175846fc7745ef8d8986a4ff6585856040516109559291906123c5565b60405180910390a2600660009054906101000a900473ffffffffffffffffffffffffffffffffffffffff1673ffffffffffffffffffffffffffffffffffffffff166323b872dd3330876040518463ffffffff1660e01b81526004016109bc9392919061210d565b602060405180830381600087803b1580156109d657600080fd5b505af11580156109ea573d6000803e3d6000fd5b505050506040513d601f19601f82011682018060405250810190610a0e9190611d63565b610a1757600080fd5b5050919050565b60006012905090565b6000610ac9610a3461141d565b848460026000610a4261141d565b73ffffffffffffffffffffffffffffffffffffffff1673ffffffffffffffffffffffffffffffffffffffff16815260200190815260200160002060008873ffffffffffffffffffffffffffffffffffffffff1673ffffffffffffffffffffffffffffffffffffffff16815260200190815260200160002054610ac49190612425565b611425565b6001905092915050565b6000600160008373ffffffffffffffffffffffffffffffffffffffff1673ffffffffffffffffffffffffffffffffffffffff168152602001908152602001600020549050919050565b610b2461141d565b73ffffffffffffffffffffffffffffffffffffffff16610b42610c56565b73ffffffffffffffffffffffffffffffffffffffff1614610b98576040517f08c379a0000000000000000000000000000000000000000000000000000000008152600401610b8f906122aa565b60405180910390fd5b600073ffffffffffffffffffffffffffffffffffffffff1660008054906101000a900473ffffffffffffffffffffffffffffffffffffffff1673ffffffffffffffffffffffffffffffffffffffff167f8be0079c531659141344cd1fd0a4f28419497f9722a3daafe3b4186f6b6457e060405160405180910390a360008060006101000a81548173ffffffffffffffffffffffffffffffffffffffff021916908373ffffffffffffffffffffffffffffffffffffffff160217905550565b60008060009054906101000a900473ffffffffffffffffffffffffffffffffffffffff16905090565b606060058054610c8e9061260a565b80601f0160208091040260200160405190810160405280929190818152602001828054610cba9061260a565b8015610d075780601f10610cdc57610100808354040283529160200191610d07565b820191906000526020600020905b815481529060010190602001808311610cea57829003601f168201915b5050505050905090565b60008060026000610d2061141d565b73ffffffffffffffffffffffffffffffffffffffff1673ffffffffffffffffffffffffffffffffffffffff16815260200190815260200160002060008573ffffffffffffffffffffffffffffffffffffffff1673ffffffffffffffffffffffffffffffffffffffff16815260200190815260200160002054905082811015610ddd576040517f08c379a0000000000000000000000000000000000000000000000000000000008152600401610dd49061236a565b60405180910390fd5b610dfa610de861141d565b858584610df59190612506565b611425565b600191505092915050565b6000610e19610e1261141d565b848461161c565b6001905092915050565b6000600660009054906101000a900473ffffffffffffffffffffffffffffffffffffffff1673ffffffffffffffffffffffffffffffffffffffff166370a08231306040518263ffffffff1660e01b8152600401610e809190612092565b60206040518083038186803b158015610e9857600080fd5b505afa158015610eac573d6000803e3d6000fd5b505050506040513d601f19601f82011682018060405250810190610ed09190611db5565b905090565b610edd61141d565b73ffffffffffffffffffffffffffffffffffffffff16610efb610c56565b73ffffffffffffffffffffffffffffffffffffffff1614610f51576040517f08c379a0000000000000000000000000000000000000000000000000000000008152600401610f48906122aa565b60405180910390fd5b600073ffffffffffffffffffffffffffffffffffffffff168273ffffffffffffffffffffffffffffffffffffffff161415610f8b57600080fd5b600660009054906101000a900473ffffffffffffffffffffffffffffffffffffffff1673ffffffffffffffffffffffffffffffffffffffff1663a9059cbb83836040518363ffffffff1660e01b8152600401610fe89291906120e4565b602060405180830381600087803b15801561100257600080fd5b505af1158015611016573d6000803e3d6000fd5b505050506040513d601f19601f8201168201806040525081019061103a9190611d63565b611079576040517f08c379a00000000000000000000000000000000000000000000000000000000081526004016110709061222a565b60405180910390fd5b5050565b6000600260008473ffffffffffffffffffffffffffffffffffffffff1673ffffffffffffffffffffffffffffffffffffffff16815260200190815260200160002060008373ffffffffffffffffffffffffffffffffffffffff1673ffffffffffffffffffffffffffffffffffffffff16815260200190815260200160002054905092915050565b61110c61141d565b73ffffffffffffffffffffffffffffffffffffffff1661112a610c56565b73ffffffffffffffffffffffffffffffffffffffff1614611180576040517f08c379a0000000000000000000000000000000000000000000000000000000008152600401611177906122aa565b60405180910390fd5b600660009054906101000a900473ffffffffffffffffffffffffffffffffffffffff1673ffffffffffffffffffffffffffffffffffffffff166323b872dd8330846040518463ffffffff1660e01b81526004016111df939291906120ad565b602060405180830381600087803b1580156111f957600080fd5b505af115801561120d573d6000803e3d6000fd5b505050506040513d601f19601f820116820180604052508101906112319190611d63565b611270576040517f08c379a00000000000000000000000000000000000000000000000000000000081526004016112679061222a565b60405180910390fd5b5050565b61127c61141d565b73ffffffffffffffffffffffffffffffffffffffff1661129a610c56565b73ffffffffffffffffffffffffffffffffffffffff16146112f0576040517f08c379a00000000000000000000000000000000000000000000000000000000081526004016112e7906122aa565b60405180910390fd5b600073ffffffffffffffffffffffffffffffffffffffff168173ffffffffffffffffffffffffffffffffffffffff161415611360576040517f08c379a0000000000000000000000000000000000000000000000000000000008152600401611357906121ea565b60405180910390fd5b8073ffffffffffffffffffffffffffffffffffffffff1660008054906101000a900473ffffffffffffffffffffffffffffffffffffffff1673ffffffffffffffffffffffffffffffffffffffff167f8be0079c531659141344cd1fd0a4f28419497f9722a3daafe3b4186f6b6457e060405160405180910390a3806000806101000a81548173ffffffffffffffffffffffffffffffffffffffff021916908373ffffffffffffffffffffffffffffffffffffffff16021790555050565b600033905090565b600073ffffffffffffffffffffffffffffffffffffffff168373ffffffffffffffffffffffffffffffffffffffff161415611495576040517f08c379a000000000000000000000000000000000000000000000000000000000815260040161148c9061230a565b60405180910390fd5b600073ffffffffffffffffffffffffffffffffffffffff168273ffffffffffffffffffffffffffffffffffffffff161415611505576040517f08c379a00000000000000000000000000000000000000000000000000000000081526004016114fc9061220a565b60405180910390fd5b80600260008573ffffffffffffffffffffffffffffffffffffffff1673ffffffffffffffffffffffffffffffffffffffff16815260200190815260200160002060008473ffffffffffffffffffffffffffffffffffffffff1673ffffffffffffffffffffffffffffffffffffffff168152602001908152602001600020819055508173ffffffffffffffffffffffffffffffffffffffff168373ffffffffffffffffffffffffffffffffffffffff167f8c5be1e5ebec7d5bd14f71427d1e84f3dd0314c0f7b2291e5b200ac8c7c3b925836040516115e391906123aa565b60405180910390a3505050565b600081836115fe91906124ac565b905092915050565b60008183611614919061247b565b905092915050565b600073ffffffffffffffffffffffffffffffffffffffff168373ffffffffffffffffffffffffffffffffffffffff16141561168c576040517f08c379a0000000000000000000000000000000000000000000000000000000008152600401611683906122ea565b60405180910390fd5b600073ffffffffffffffffffffffffffffffffffffffff168273ffffffffffffffffffffffffffffffffffffffff1614156116fc576040517f08c379a00000000000000000000000000000000000000000000000000000000081526004016116f3906121aa565b60405180910390fd5b611707838383611bc9565b6000600160008573ffffffffffffffffffffffffffffffffffffffff1673ffffffffffffffffffffffffffffffffffffffff1681526020019081526020016000205490508181101561178e576040517f08c379a00000000000000000000000000000000000000000000000000000000081526004016117859061224a565b60405180910390fd5b818161179a9190612506565b600160008673ffffffffffffffffffffffffffffffffffffffff1673ffffffffffffffffffffffffffffffffffffffff1681526020019081526020016000208190555081600160008573ffffffffffffffffffffffffffffffffffffffff1673ffffffffffffffffffffffffffffffffffffffff168152602001908152602001600020600082825461182c9190612425565b925050819055508273ffffffffffffffffffffffffffffffffffffffff168473ffffffffffffffffffffffffffffffffffffffff167fddf252ad1be2c89b69c2b068fc378daa952ba7f163c4a11628f55a4df523b3ef8460405161189091906123aa565b60405180910390a350505050565b600073ffffffffffffffffffffffffffffffffffffffff168273ffffffffffffffffffffffffffffffffffffffff16141561190e576040517f08c379a0000000000000000000000000000000000000000000000000000000008152600401611905906122ca565b60405180910390fd5b61191a82600083611bc9565b6000600160008473ffffffffffffffffffffffffffffffffffffffff1673ffffffffffffffffffffffffffffffffffffffff168152602001908152602001600020549050818110156119a1576040517f08c379a0000000000000000000000000000000000000000000000000000000008152600401611998906121ca565b60405180910390fd5b81816119ad9190612506565b600160008573ffffffffffffffffffffffffffffffffffffffff1673ffffffffffffffffffffffffffffffffffffffff168152602001908152602001600020819055508160036000828254611a029190612506565b92505081905550600073ffffffffffffffffffffffffffffffffffffffff168373ffffffffffffffffffffffffffffffffffffffff167fddf252ad1be2c89b69c2b068fc378daa952ba7f163c4a11628f55a4df523b3ef84604051611a6791906123aa565b60405180910390a3505050565b600073ffffffffffffffffffffffffffffffffffffffff168273ffffffffffffffffffffffffffffffffffffffff161415611ae4576040517f08c379a0000000000000000000000000000000000000000000000000000000008152600401611adb9061238a565b60405180910390fd5b611af060008383611bc9565b8060036000828254611b029190612425565b9250508190555080600160008473ffffffffffffffffffffffffffffffffffffffff1673ffffffffffffffffffffffffffffffffffffffff1681526020019081526020016000206000828254611b589190612425565b925050819055508173ffffffffffffffffffffffffffffffffffffffff16600073ffffffffffffffffffffffffffffffffffffffff167fddf252ad1be2c89b69c2b068fc378daa952ba7f163c4a11628f55a4df523b3ef83604051611bbd91906123aa565b60405180910390a35050565b505050565b600081359050611bdd81612b32565b92915050565b600081359050611bf281612b49565b92915050565b600081519050611c0781612b60565b92915050565b600081359050611c1c81612b77565b92915050565b600081519050611c3181612b77565b92915050565b600060208284031215611c4957600080fd5b6000611c5784828501611bce565b91505092915050565b60008060408385031215611c7357600080fd5b6000611c8185828601611be3565b9250506020611c9285828601611c0d565b9150509250929050565b60008060408385031215611caf57600080fd5b6000611cbd85828601611bce565b9250506020611cce85828601611bce565b9150509250929050565b600080600060608486031215611ced57600080fd5b6000611cfb86828701611bce565b9350506020611d0c86828701611bce565b9250506040611d1d86828701611c0d565b9150509250925092565b60008060408385031215611d3a57600080fd5b6000611d4885828601611bce565b9250506020611d5985828601611c0d565b9150509250929050565b600060208284031215611d7557600080fd5b6000611d8384828501611bf8565b91505092915050565b600060208284031215611d9e57600080fd5b6000611dac84828501611c0d565b91505092915050565b600060208284031215611dc757600080fd5b6000611dd584828501611c22565b91505092915050565b611de7816125a1565b82525050565b611df68161253a565b82525050565b611e058161255e565b82525050565b6000611e1682612409565b611e208185612414565b9350611e308185602086016125d7565b611e39816126c9565b840191505092915050565b6000611e51602383612414565b9150611e5c826126da565b604082019050919050565b6000611e74602283612414565b9150611e7f82612729565b604082019050919050565b6000611e97602683612414565b9150611ea282612778565b604082019050919050565b6000611eba602283612414565b9150611ec5826127c7565b604082019050919050565b6000611edd605083612414565b9150611ee882612816565b606082019050919050565b6000611f00602683612414565b9150611f0b8261288b565b604082019050919050565b6000611f23601283612414565b9150611f2e826128da565b602082019050919050565b6000611f46602883612414565b9150611f5182612903565b604082019050919050565b6000611f69602083612414565b9150611f7482612952565b602082019050919050565b6000611f8c602183612414565b9150611f978261297b565b604082019050919050565b6000611faf602583612414565b9150611fba826129ca565b604082019050919050565b6000611fd2602483612414565b9150611fdd82612a19565b604082019050919050565b6000611ff5601983612414565b915061200082612a68565b602082019050919050565b6000612018601983612414565b915061202382612a91565b602082019050919050565b600061203b602583612414565b915061204682612aba565b604082019050919050565b600061205e601f83612414565b915061206982612b09565b602082019050919050565b61207d8161258a565b82525050565b61208c81612594565b82525050565b60006020820190506120a76000830184611ded565b92915050565b60006060820190506120c26000830186611dde565b6120cf6020830185611ded565b6120dc6040830184612074565b949350505050565b60006040820190506120f96000830185611dde565b6121066020830184612074565b9392505050565b60006060820190506121226000830186611ded565b61212f6020830185611ded565b61213c6040830184612074565b949350505050565b60006040820190506121596000830185611ded565b6121666020830184612074565b9392505050565b60006020820190506121826000830184611dfc565b92915050565b600060208201905081810360008301526121a28184611e0b565b905092915050565b600060208201905081810360008301526121c381611e44565b9050919050565b600060208201905081810360008301526121e381611e67565b9050919050565b6000602082019050818103600083015261220381611e8a565b9050919050565b6000602082019050818103600083015261222381611ead565b9050919050565b6000602082019050818103600083015261224381611ed0565b9050919050565b6000602082019050818103600083015261226381611ef3565b9050919050565b6000602082019050818103600083015261228381611f16565b9050919050565b600060208201905081810360008301526122a381611f39565b9050919050565b600060208201905081810360008301526122c381611f5c565b9050919050565b600060208201905081810360008301526122e381611f7f565b9050919050565b6000602082019050818103600083015261230381611fa2565b9050919050565b6000602082019050818103600083015261232381611fc5565b9050919050565b6000602082019050818103600083015261234381611fe8565b9050919050565b600060208201905081810360008301526123638161200b565b9050919050565b600060208201905081810360008301526123838161202e565b9050919050565b600060208201905081810360008301526123a381612051565b9050919050565b60006020820190506123bf6000830184612074565b92915050565b60006040820190506123da6000830185612074565b6123e76020830184612074565b9392505050565b60006020820190506124036000830184612083565b92915050565b600081519050919050565b600082825260208201905092915050565b60006124308261258a565b915061243b8361258a565b9250827fffffffffffffffffffffffffffffffffffffffffffffffffffffffffffffffff038211156124705761246f61263c565b5b828201905092915050565b60006124868261258a565b91506124918361258a565b9250826124a1576124a061266b565b5b828204905092915050565b60006124b78261258a565b91506124c28361258a565b9250817fffffffffffffffffffffffffffffffffffffffffffffffffffffffffffffffff04831182151516156124fb576124fa61263c565b5b828202905092915050565b60006125118261258a565b915061251c8361258a565b92508282101561252f5761252e61263c565b5b828203905092915050565b60006125458261256a565b9050919050565b60006125578261256a565b9050919050565b60008115159050919050565b600073ffffffffffffffffffffffffffffffffffffffff82169050919050565b6000819050919050565b600060ff82169050919050565b60006125ac826125b3565b9050919050565b60006125be826125c5565b9050919050565b60006125d08261256a565b9050919050565b60005b838110156125f55780820151818401526020810190506125da565b83811115612604576000848401525b50505050565b6000600282049050600182168061262257607f821691505b602082108114156126365761263561269a565b5b50919050565b7f4e487b7100000000000000000000000000000000000000000000000000000000600052601160045260246000fd5b7f4e487b7100000000000000000000000000000000000000000000000000000000600052601260045260246000fd5b7f4e487b7100000000000000000000000000000000000000000000000000000000600052602260045260246000fd5b6000601f19601f8301169050919050565b7f45524332303a207472616e7366657220746f20746865207a65726f206164647260008201527f6573730000000000000000000000000000000000000000000000000000000000602082015250565b7f45524332303a206275726e20616d6f756e7420657863656564732062616c616e60008201527f6365000000000000000000000000000000000000000000000000000000000000602082015250565b7f4f776e61626c653a206e6577206f776e657220697320746865207a65726f206160008201527f6464726573730000000000000000000000000000000000000000000000000000602082015250565b7f45524332303a20617070726f766520746f20746865207a65726f20616464726560008201527f7373000000000000000000000000000000000000000000000000000000000000602082015250565b7f546f6b656e207472616e73666572206572726f723a20506c65617365206c6f7760008201527f65722074686520616d6f756e74206f66207072656d69756d732074686174207960208201527f6f752077616e7420746f2073656e642e00000000000000000000000000000000604082015250565b7f45524332303a207472616e7366657220616d6f756e742065786365656473206260008201527f616c616e63650000000000000000000000000000000000000000000000000000602082015250565b7f496e73756666696369656e742066756e64730000000000000000000000000000600082015250565b7f45524332303a207472616e7366657220616d6f756e742065786365656473206160008201527f6c6c6f77616e6365000000000000000000000000000000000000000000000000602082015250565b7f4f776e61626c653a2063616c6c6572206973206e6f7420746865206f776e6572600082015250565b7f45524332303a206275726e2066726f6d20746865207a65726f2061646472657360008201527f7300000000000000000000000000000000000000000000000000000000000000602082015250565b7f45524332303a207472616e736665722066726f6d20746865207a65726f20616460008201527f6472657373000000000000000000000000000000000000000000000000000000602082015250565b7f45524332303a20617070726f76652066726f6d20746865207a65726f2061646460008201527f7265737300000000000000000000000000000000000000000000000000000000602082015250565b7f506f6f6c3a20416d6f756e7420697320746f6f20736d616c6c00000000000000600082015250565b7f506f6f6c3a20416d6f756e7420697320746f6f206c6172676500000000000000600082015250565b7f45524332303a2064656372656173656420616c6c6f77616e63652062656c6f7760008201527f207a65726f000000000000000000000000000000000000000000000000000000602082015250565b7f45524332303a206d696e7420746f20746865207a65726f206164647265737300600082015250565b612b3b8161253a565b8114612b4657600080fd5b50565b612b528161254c565b8114612b5d57600080fd5b50565b612b698161255e565b8114612b7457600080fd5b50565b612b808161258a565b8114612b8b57600080fd5b5056fea264697066735822122055aa80530220ded467ba91f752d2584282f7d5ed3e2ea9caef96579014126dca64736f6c63430008030033",
  "immutableReferences": {},
  "source": "// SPDX-License-Identifier: GPL-3.0\npragma solidity 0.8.3;\n\nimport \"./DaiToken.sol\";\nimport \"./LiquidityPool.sol\";\nimport \"./Options.sol\";\nimport \"./FakeComponents.sol\";\nimport \"@openzeppelin/contracts/utils/math/SafeMath.sol\";\n\ncontract Put is Options{\n\n    using SafeMath for uint256;\n\n    string public name = \"Put Hedge Option Contract\";\n    DaiToken token;\n    LiquidityPool public pool;\n    uint256 public maxSpread = 95;\n    FakeSwap public fakeSwap; //update to real swap\n\n    constructor(DaiToken _token, \n                FakePriceProvider _fakePriceProvider, // update to real price provider\n                FakeSwap _fakeSwap) // update to real swap\n                Options(Options.OptionType.Put, _fakePriceProvider) {\n\n        token = _token;\n        fakeSwap = _fakeSwap;\n        pool = new LiquidityPool(token);\n        approve();\n    }\n\n    /**\n     * @notice Allows the ERC pool contract to receive and send tokens\n     */\n    function approve() public {\n        require(token.approve(address(pool), uint256(10000000000000000000000000)), \"token approve failed\");\n    }\n\n    /**\n     * @notice Sends premiums to the ERC liquidity pool contract\n     */\n    function sendPremium(uint256 amount) public returns (uint premium){\n        \n        uint currentPrice = uint(fakePriceProvider.latestAnswer());\n        address[] memory path = new address[](2);\n        path[0] = fakeSwap.WETH(); //update to real swap\n        path[1] = address(token);\n        uint[] memory amounts = fakeSwap.swapExactETHForTokens {\n            value: amount\n        }(\n            amount.mul(currentPrice).mul(maxSpread).div(1e10),\n            path,\n            address(this),\n            block.timestamp\n        );\n        premium = amounts[amounts.length - 1];\n        address payable payableAddress = payable(msg.sender);\n        pool.sendPremium(payableAddress, amount);\n    }\n\n    /**\n     * @notice Sends profits in DAI from the ERC pool to a put option holder's address\n     * @param option A specific option contract\n     */\n    function payProfit(Option memory option) internal override returns (uint profit) {\n        //uint currentPrice = uint(priceProvider.latestAnswer());\n        //require(option.strike >= currentPrice, \"Current price is too high\");\n        //profit = option.strike.sub(currentPrice).mul(option.amount).div(PRICE_DECIMALS);\n        profit = uint256(10000000000000000000);\n        pool.send(option.holder, profit);\n        //unlockFunds(option);\n    }\n\n\n}",
  "sourcePath": "/home/caique/Documentos/Cryptobal/project/hedge-poc/src/contracts/Put.sol",
  "compiler": {
    "name": "solc",
    "version": "0.8.3+commit.8d00100c.Emscripten.clang"
  },
  "schemaVersion": "3.3.4",
  "updatedAt": "2021-04-07T23:16:45.867Z",
  "networkType": "ethereum",
  "devdoc": {
    "kind": "dev",
    "methods": {
      "owner()": {
        "details": "Returns the address of the current owner."
      },
      "renounceOwnership()": {
        "details": "Leaves the contract without owner. It will not be possible to call `onlyOwner` functions anymore. Can only be called by the current owner. NOTE: Renouncing ownership will leave the contract without an owner, thereby removing any functionality that is only available to the owner."
      },
      "transferOwnership(address)": {
        "details": "Transfers ownership of the contract to a new account (`newOwner`). Can only be called by the current owner."
      }
    },
    "version": 1
  },
  "userdoc": {
    "kind": "user",
    "methods": {
      "approve()": {
        "notice": "Allows the ERC pool contract to receive and send tokens"
      },
      "sendPremium(uint256)": {
        "notice": "Sends premiums to the ERC liquidity pool contract"
      }
    },
    "version": 1
  }
}