{
    "contractName": "LiquidityPoolETH",
    "abi": [
        {
            "anonymous": false,
            "inputs": [
                {
                    "indexed": true,
                    "internalType": "address",
                    "name": "owner",
                    "type": "address"
                },
                {
                    "indexed": true,
                    "internalType": "address",
                    "name": "spender",
                    "type": "address"
                },
                {
                    "indexed": false,
                    "internalType": "uint256",
                    "name": "value",
                    "type": "uint256"
                }
            ],
            "name": "Approval",
            "type": "event"
        },
        {
            "anonymous": false,
            "inputs": [
                {
                    "indexed": true,
                    "internalType": "address",
                    "name": "previousOwner",
                    "type": "address"
                },
                {
                    "indexed": true,
                    "internalType": "address",
                    "name": "newOwner",
                    "type": "address"
                }
            ],
            "name": "OwnershipTransferred",
            "type": "event"
        },
        {
            "anonymous": false,
            "inputs": [
                {
                    "indexed": true,
                    "internalType": "address",
                    "name": "account",
                    "type": "address"
                },
                {
                    "indexed": false,
                    "internalType": "uint256",
                    "name": "amount",
                    "type": "uint256"
                },
                {
                    "indexed": false,
                    "internalType": "uint256",
                    "name": "writeAmount",
                    "type": "uint256"
                }
            ],
            "name": "Provide",
            "type": "event"
        },
        {
            "anonymous": false,
            "inputs": [
                {
                    "indexed": true,
                    "internalType": "address",
                    "name": "from",
                    "type": "address"
                },
                {
                    "indexed": true,
                    "internalType": "address",
                    "name": "to",
                    "type": "address"
                },
                {
                    "indexed": false,
                    "internalType": "uint256",
                    "name": "value",
                    "type": "uint256"
                }
            ],
            "name": "Transfer",
            "type": "event"
        },
        {
            "inputs": [
                {
                    "internalType": "address",
                    "name": "owner",
                    "type": "address"
                },
                {
                    "internalType": "address",
                    "name": "spender",
                    "type": "address"
                }
            ],
            "name": "allowance",
            "outputs": [
                {
                    "internalType": "uint256",
                    "name": "",
                    "type": "uint256"
                }
            ],
            "stateMutability": "view",
            "type": "function"
        },
        {
            "inputs": [
                {
                    "internalType": "address",
                    "name": "spender",
                    "type": "address"
                },
                {
                    "internalType": "uint256",
                    "name": "amount",
                    "type": "uint256"
                }
            ],
            "name": "approve",
            "outputs": [
                {
                    "internalType": "bool",
                    "name": "",
                    "type": "bool"
                }
            ],
            "stateMutability": "nonpayable",
            "type": "function"
        },
        {
            "inputs": [
                {
                    "internalType": "address",
                    "name": "account",
                    "type": "address"
                }
            ],
            "name": "balanceOf",
            "outputs": [
                {
                    "internalType": "uint256",
                    "name": "",
                    "type": "uint256"
                }
            ],
            "stateMutability": "view",
            "type": "function"
        },
        {
            "inputs": [],
            "name": "decimals",
            "outputs": [
                {
                    "internalType": "uint8",
                    "name": "",
                    "type": "uint8"
                }
            ],
            "stateMutability": "view",
            "type": "function"
        },
        {
            "inputs": [
                {
                    "internalType": "address",
                    "name": "spender",
                    "type": "address"
                },
                {
                    "internalType": "uint256",
                    "name": "subtractedValue",
                    "type": "uint256"
                }
            ],
            "name": "decreaseAllowance",
            "outputs": [
                {
                    "internalType": "bool",
                    "name": "",
                    "type": "bool"
                }
            ],
            "stateMutability": "nonpayable",
            "type": "function"
        },
        {
            "inputs": [
                {
                    "internalType": "address",
                    "name": "spender",
                    "type": "address"
                },
                {
                    "internalType": "uint256",
                    "name": "addedValue",
                    "type": "uint256"
                }
            ],
            "name": "increaseAllowance",
            "outputs": [
                {
                    "internalType": "bool",
                    "name": "",
                    "type": "bool"
                }
            ],
            "stateMutability": "nonpayable",
            "type": "function"
        },
        {
            "inputs": [],
            "name": "lockedPremium",
            "outputs": [
                {
                    "internalType": "uint256",
                    "name": "",
                    "type": "uint256"
                }
            ],
            "stateMutability": "view",
            "type": "function"
        },
        {
            "inputs": [],
            "name": "name",
            "outputs": [
                {
                    "internalType": "string",
                    "name": "",
                    "type": "string"
                }
            ],
            "stateMutability": "view",
            "type": "function"
        },
        {
            "inputs": [],
            "name": "owner",
            "outputs": [
                {
                    "internalType": "address",
                    "name": "",
                    "type": "address"
                }
            ],
            "stateMutability": "view",
            "type": "function"
        },
        {
            "inputs": [
                {
                    "internalType": "uint256",
                    "name": "minMint",
                    "type": "uint256"
                }
            ],
            "name": "provide",
            "outputs": [
                {
                    "internalType": "uint256",
                    "name": "mint",
                    "type": "uint256"
                }
            ],
            "stateMutability": "payable",
            "type": "function"
        },
        {
            "inputs": [],
            "name": "renounceOwnership",
            "outputs": [],
            "stateMutability": "nonpayable",
            "type": "function"
        },
        {
            "inputs": [],
            "name": "symbol",
            "outputs": [
                {
                    "internalType": "string",
                    "name": "",
                    "type": "string"
                }
            ],
            "stateMutability": "view",
            "type": "function"
        },
        {
            "inputs": [],
            "name": "totalBalance",
            "outputs": [
                {
                    "internalType": "uint256",
                    "name": "balance",
                    "type": "uint256"
                }
            ],
            "stateMutability": "nonpayable",
            "type": "function"
        },
        {
            "inputs": [],
            "name": "totalSupply",
            "outputs": [
                {
                    "internalType": "uint256",
                    "name": "",
                    "type": "uint256"
                }
            ],
            "stateMutability": "view",
            "type": "function"
        },
        {
            "inputs": [
                {
                    "internalType": "address",
                    "name": "recipient",
                    "type": "address"
                },
                {
                    "internalType": "uint256",
                    "name": "amount",
                    "type": "uint256"
                }
            ],
            "name": "transfer",
            "outputs": [
                {
                    "internalType": "bool",
                    "name": "",
                    "type": "bool"
                }
            ],
            "stateMutability": "nonpayable",
            "type": "function"
        },
        {
            "inputs": [
                {
                    "internalType": "address",
                    "name": "sender",
                    "type": "address"
                },
                {
                    "internalType": "address",
                    "name": "recipient",
                    "type": "address"
                },
                {
                    "internalType": "uint256",
                    "name": "amount",
                    "type": "uint256"
                }
            ],
            "name": "transferFrom",
            "outputs": [
                {
                    "internalType": "bool",
                    "name": "",
                    "type": "bool"
                }
            ],
            "stateMutability": "nonpayable",
            "type": "function"
        },
        {
            "inputs": [
                {
                    "internalType": "address",
                    "name": "newOwner",
                    "type": "address"
                }
            ],
            "name": "transferOwnership",
            "outputs": [],
            "stateMutability": "nonpayable",
            "type": "function"
        },
        {
            "stateMutability": "payable",
            "type": "receive"
        }
    ],
    "bytecode": "60806040523480156200001157600080fd5b506040518060400160405280600c81526020016b22aa24102628102a37b5b2b760a11b815250604051806040016040528060088152602001670eee4d2e8ca8aa8960c31b81525060006200006a620000e860201b60201c565b600080546001600160a01b0319166001600160a01b0383169081178255604051929350917f8be0079c531659141344cd1fd0a4f28419497f9722a3daafe3b4186f6b6457e0908290a3508151620000c9906004906020850190620000ec565b508051620000df906005906020840190620000ec565b505050620001cf565b3390565b828054620000fa9062000192565b90600052602060002090601f0160209004810192826200011e576000855562000169565b82601f106200013957805160ff191683800117855562000169565b8280016001018555821562000169579182015b82811115620001695782518255916020019190600101906200014c565b50620001779291506200017b565b5090565b5b808211156200017757600081556001016200017c565b600181811c90821680620001a757607f821691505b60208210811415620001c957634e487b7160e01b600052602260045260246000fd5b50919050565b610efc80620001df6000396000f3fe6080604052600436106101025760003560e01c8063715018a611610095578063a457c2d711610064578063a457c2d714610281578063a9059cbb146102a1578063ad7a672f146102c1578063dd62ed3e146102d6578063f2fde38b1461031c57610109565b8063715018a614610217578063797be55e1461022e5780638da5cb5b1461024457806395d89b411461026c57610109565b80632e2ebe06116100d15780632e2ebe06146101a8578063313ce567146101bb57806339509351146101d757806370a08231146101f757610109565b806306fdde031461010e578063095ea7b31461013957806318160ddd1461016957806323b872dd1461018857610109565b3661010957005b600080fd5b34801561011a57600080fd5b5061012361033c565b6040516101309190610db4565b60405180910390f35b34801561014557600080fd5b50610159610154366004610d73565b6103ce565b6040519015158152602001610130565b34801561017557600080fd5b506003545b604051908152602001610130565b34801561019457600080fd5b506101596101a3366004610d38565b6103e4565b61017a6101b6366004610d9c565b61049a565b3480156101c757600080fd5b5060405160128152602001610130565b3480156101e357600080fd5b506101596101f2366004610d73565b6105e8565b34801561020357600080fd5b5061017a610212366004610cec565b61061f565b34801561022357600080fd5b5061022c61063e565b005b34801561023a57600080fd5b5061017a60065481565b34801561025057600080fd5b506000546040516001600160a01b039091168152602001610130565b34801561027857600080fd5b506101236106e2565b34801561028d57600080fd5b5061015961029c366004610d73565b6106f1565b3480156102ad57600080fd5b506101596102bc366004610d73565b61078c565b3480156102cd57600080fd5b5061017a610799565b3480156102e257600080fd5b5061017a6102f1366004610d06565b6001600160a01b03918216600090815260026020908152604080832093909416825291909152205490565b34801561032857600080fd5b5061022c610337366004610cec565b6107b5565b60606004805461034b90610e75565b80601f016020809104026020016040519081016040528092919081815260200182805461037790610e75565b80156103c45780601f10610399576101008083540402835291602001916103c4565b820191906000526020600020905b8154815290600101906020018083116103a757829003601f168201915b5050505050905090565b60006103db3384846108cf565b50600192915050565b60006103f18484846109f3565b6001600160a01b03841660009081526002602090815260408083203384529091529020548281101561047b5760405162461bcd60e51b815260206004820152602860248201527f45524332303a207472616e7366657220616d6f756e74206578636565647320616044820152676c6c6f77616e636560c01b60648201526084015b60405180910390fd5b61048f853361048a8685610e5e565b6108cf565b506001949350505050565b6000806104a660035490565b905060006104b2610799565b90506000821180156104c45750600081115b156104ed576104e66104d68234610bcb565b6104e03485610bde565b90610bea565b92506104fc565b6104f9346103e8610bde565b92505b8383101561054c5760405162461bcd60e51b815260206004820152601d60248201527f506f6f6c3a204d696e74206c696d697420697320746f6f206c617267650000006044820152606401610472565b6000831161059c5760405162461bcd60e51b815260206004820152601960248201527f506f6f6c3a20416d6f756e7420697320746f6f20736d616c6c000000000000006044820152606401610472565b6105a63384610bf6565b604080513481526020810185905233917f4089141ea5e4c16575f5ebf65f1786497ea07c175846fc7745ef8d8986a4ff65910160405180910390a25050919050565b3360008181526002602090815260408083206001600160a01b038716845290915281205490916103db91859061048a908690610e07565b6001600160a01b0381166000908152600160205260409020545b919050565b6000546001600160a01b031633146106985760405162461bcd60e51b815260206004820181905260248201527f4f776e61626c653a2063616c6c6572206973206e6f7420746865206f776e65726044820152606401610472565b600080546040516001600160a01b03909116907f8be0079c531659141344cd1fd0a4f28419497f9722a3daafe3b4186f6b6457e0908390a3600080546001600160a01b0319169055565b60606005805461034b90610e75565b3360009081526002602090815260408083206001600160a01b0386168452909152812054828110156107735760405162461bcd60e51b815260206004820152602560248201527f45524332303a2064656372656173656420616c6c6f77616e63652062656c6f77604482015264207a65726f60d81b6064820152608401610472565b610782338561048a8685610e5e565b5060019392505050565b60006103db3384846109f3565b60006107b060065447610bcb90919063ffffffff16565b905090565b6000546001600160a01b0316331461080f5760405162461bcd60e51b815260206004820181905260248201527f4f776e61626c653a2063616c6c6572206973206e6f7420746865206f776e65726044820152606401610472565b6001600160a01b0381166108745760405162461bcd60e51b815260206004820152602660248201527f4f776e61626c653a206e6577206f776e657220697320746865207a65726f206160448201526564647265737360d01b6064820152608401610472565b600080546040516001600160a01b03808516939216917f8be0079c531659141344cd1fd0a4f28419497f9722a3daafe3b4186f6b6457e091a3600080546001600160a01b0319166001600160a01b0392909216919091179055565b6001600160a01b0383166109315760405162461bcd60e51b8152602060048201526024808201527f45524332303a20617070726f76652066726f6d20746865207a65726f206164646044820152637265737360e01b6064820152608401610472565b6001600160a01b0382166109925760405162461bcd60e51b815260206004820152602260248201527f45524332303a20617070726f766520746f20746865207a65726f206164647265604482015261737360f01b6064820152608401610472565b6001600160a01b0383811660008181526002602090815260408083209487168084529482529182902085905590518481527f8c5be1e5ebec7d5bd14f71427d1e84f3dd0314c0f7b2291e5b200ac8c7c3b925910160405180910390a3505050565b6001600160a01b038316610a575760405162461bcd60e51b815260206004820152602560248201527f45524332303a207472616e736665722066726f6d20746865207a65726f206164604482015264647265737360d81b6064820152608401610472565b6001600160a01b038216610ab95760405162461bcd60e51b815260206004820152602360248201527f45524332303a207472616e7366657220746f20746865207a65726f206164647260448201526265737360e81b6064820152608401610472565b6001600160a01b03831660009081526001602052604090205481811015610b315760405162461bcd60e51b815260206004820152602660248201527f45524332303a207472616e7366657220616d6f756e7420657863656564732062604482015265616c616e636560d01b6064820152608401610472565b610b3b8282610e5e565b6001600160a01b038086166000908152600160205260408082209390935590851681529081208054849290610b71908490610e07565b92505081905550826001600160a01b0316846001600160a01b03167fddf252ad1be2c89b69c2b068fc378daa952ba7f163c4a11628f55a4df523b3ef84604051610bbd91815260200190565b60405180910390a350505050565b6000610bd78284610e5e565b9392505050565b6000610bd78284610e3f565b6000610bd78284610e1f565b6001600160a01b038216610c4c5760405162461bcd60e51b815260206004820152601f60248201527f45524332303a206d696e7420746f20746865207a65726f2061646472657373006044820152606401610472565b8060036000828254610c5e9190610e07565b90915550506001600160a01b03821660009081526001602052604081208054839290610c8b908490610e07565b90915550506040518181526001600160a01b038316906000907fddf252ad1be2c89b69c2b068fc378daa952ba7f163c4a11628f55a4df523b3ef9060200160405180910390a35050565b80356001600160a01b038116811461063957600080fd5b600060208284031215610cfd578081fd5b610bd782610cd5565b60008060408385031215610d18578081fd5b610d2183610cd5565b9150610d2f60208401610cd5565b90509250929050565b600080600060608486031215610d4c578081fd5b610d5584610cd5565b9250610d6360208501610cd5565b9150604084013590509250925092565b60008060408385031215610d85578182fd5b610d8e83610cd5565b946020939093013593505050565b600060208284031215610dad578081fd5b5035919050565b6000602080835283518082850152825b81811015610de057858101830151858201604001528201610dc4565b81811115610df15783604083870101525b50601f01601f1916929092016040019392505050565b60008219821115610e1a57610e1a610eb0565b500190565b600082610e3a57634e487b7160e01b81526012600452602481fd5b500490565b6000816000190483118215151615610e5957610e59610eb0565b500290565b600082821015610e7057610e70610eb0565b500390565b600181811c90821680610e8957607f821691505b60208210811415610eaa57634e487b7160e01b600052602260045260246000fd5b50919050565b634e487b7160e01b600052601160045260246000fdfea2646970667358221220cc304ad1bc4f4846448069a5bf064b14a2139bc6933f7dfe6c72d0d1ee50d95164736f6c63430008030033",
    "sourcePath": "/home/caique/Documentos/Cryptobal/project/hedge-poc/src/contracts/LiquidityPoolETH.sol",
    "compiler": {
        "name": "solc",
        "version": "0.8.3+commit.8d00100c"
    },
    "functionHashes": {
        "allowance(address,address)": "dd62ed3e",
        "approve(address,uint256)": "095ea7b3",
        "balanceOf(address)": "70a08231",
        "decimals()": "313ce567",
        "decreaseAllowance(address,uint256)": "a457c2d7",
        "increaseAllowance(address,uint256)": "39509351",
        "lockedPremium()": "797be55e",
        "name()": "06fdde03",
        "owner()": "8da5cb5b",
        "provide(uint256)": "2e2ebe06",
        "renounceOwnership()": "715018a6",
        "symbol()": "95d89b41",
        "totalBalance()": "ad7a672f",
        "totalSupply()": "18160ddd",
        "transfer(address,uint256)": "a9059cbb",
        "transferFrom(address,address,uint256)": "23b872dd",
        "transferOwnership(address)": "f2fde38b"
    },
    "gasEstimates": {
        "creation": {
            "codeDepositCost": "767200",
            "executionCost": "infinite",
            "totalCost": "infinite"
        },
        "external": {
            "allowance(address,address)": "infinite",
            "approve(address,uint256)": "22542",
            "balanceOf(address)": "infinite",
            "decimals()": "222",
            "decreaseAllowance(address,uint256)": "23568",
            "increaseAllowance(address,uint256)": "23601",
            "lockedPremium()": "1040",
            "name()": "infinite",
            "owner()": "1068",
            "provide(uint256)": "infinite",
            "renounceOwnership()": "24188",
            "symbol()": "infinite",
            "totalBalance()": "infinite",
            "totalSupply()": "1049",
            "transfer(address,uint256)": "44467",
            "transferFrom(address,address,uint256)": "infinite",
            "transferOwnership(address)": "24510"
        }
    }
}